:100000000C9467010C9498010C9498010C9498013D
:100010000C9498010C9498010C9498010C949801FC
:100020000C9498010C9498010C9498010C949801EC
:100030000C9498010C9498010C9498010C949801DC
:100040000C9498010C9498010C9498010C949801CC
:100050000C9498010C9498010C9498010C94C60689
:100060000C9498010C9498010C9498010C949801AC
:100070000C9498010C9498010C9498010C9498019C
:100080000C9498010C9498010C9498010C9498018C
:100090000C9498010C9498010C9498010C9498017C
:1000A0000C9498010C9498010C9498010C9498016C
:1000B0000C9498010C9498010C9498010C9498015C
:1000C0000C9498010C9498010C9498010C9498014C
:1000D0000C9498010C9498010C9498010C9498013C
:1000E0000C9498010C94CA010C94D3010C94B8019F
:1000F0000C94EB010C94C2010C94FD010C94F901D9
:100100000C94E5010C94DD010C94EF010C94F301C7
:100110000C94C6010C94BE010C94D7010C94F80108
:100120000C94E1010C94F00B0C94CD010000200024
:100130002300260029002C002F00320000010000BF
:1001400003010601090100002100240027002A0004
:100150002D003000330001010000040107010A01F5
:1001600000002200250028002B002E003100340062
:1001700002010000050108010B0105050505070541
:1001800008080808020202020A0A08080404040413
:10019000010101010101010103030303030303033F
:1001A000040707070C0C0C0C0C0C0C0C02020202CE
:1001B00006060606060606060B0B0B0B0B0B0B0BB7
:1001C0000102102020080810204010204080020169
:1001D000020108040201010204081020408080404E
:1001E000201008040201800402018040201008044D
:1001F00002010804020101020408102040800102EB
:1002000004081020408000000A0B02090C0D0E08A3
:1002100007030401000000000000000000000000CF
:1002200000000000000000000000000000000000CE
:10023000000012111000000000000000000000008B
:100240000000000000000000000000007E306D791A
:10025000335B5F707F7B771F4E3D4F470000000090
:10026000000000000000000000000000000022006C
:10027000000000204E780000040100007E306D79FF
:10028000335B5F707F7B00000000000000771F4E33
:100290003D4F475E373038000E00157E6773055BB3
:1002A0000F3E0000003B004E0078000802771F0D53
:1002B0003D6F475E171038003000151D6773055BF2
:1002C0000F1C00000000000000000000F00B1124D3
:1002D0001FBECFEFD1E2DEBFCDBF00E00CBF12E00A
:1002E000A0E0B2E0E4EDF4E200E00BBF02C0079052
:1002F0000D92AC33B107D9F722E0ACE3B2E001C014
:100300001D92A43DB207E1F711E0C7E6D1E000E09D
:1003100006C021970109802FFE010E94650DC63697
:10032000D10780E00807A9F70E9410070C94681213
:100330000C9400008150823108F05AC0E82FF0E0A0
:100340008827EA55FE4F8F4F0C94650DC601CA01F0
:10035000B801BE01C201F801CD01D301D701DD0111
:10036000E101E501EB01EF01F801F301F901FD0104
:10037000809180008F778093800008958091800025
:100380008F7DF9CF80918000877FF5CF84B58F77FF
:1003900084BD089584B58F7DFBCF8091B0008F77A9
:1003A0008093B00008958091B0008F7DF9CF809147
:1003B00090008F77809390000895809190008F7DBA
:1003C000F9CF80919000877FF5CF8091A0008F7743
:1003D0008093A00008958091A0008F7DF9CF809137
:1003E000A000877FF5CF809120018F778093200137
:1003F0000895809120018F7DF9CF80912001877F22
:10040000F5CF1F93CF93DF93282F30E0F901EA5FF8
:10041000FD4F8491F901E054FE4FD491F901E65863
:10042000FE4FC491CC23A9F0162F81110E949A018E
:10043000EC2FF0E0EE0FFF1FE05AFE4FA591B491B4
:100440008FB7F894EC91111108C0D095DE23DC939E
:100450008FBFDF91CF911F910895DE2BF8CFCF93FF
:10046000DF9390E0FC01E054FE4F249186589E4FAC
:10047000FC0184918823D1F090E0880F991FFC0142
:10048000EA5BFE4FA591B491FC01E05AFE4FC59185
:10049000D49161110EC09FB7F8948C91E22FE09532
:1004A0008E238C932881E223E8839FBFDF91CF9135
:1004B00008958FB7F894EC91E22BEC938FBFF6CFB1
:1004C00090917B00977F90937B008653806480930C
:1004D0007C0080917A00806480937A0080917A0019
:1004E00086FDFCCF8091780090917900089582304C
:1004F000910538F0880F991F880F991F059701976C
:10050000F1F708956F927F929F92BF92CF92DF9200
:10051000EF92FF921F93CF93DF937C01962E11E011
:10052000C62ED12C81ED682E87E0782E809177023F
:10053000811708F40DC1C12FD0E0123009F455C065
:1005400008F047C06091630280916702113009F49E
:1005500049C0F701EC0FFD1F3197B080B7FE4FC0C7
:10056000B0FE06C06091650280916F020E94010298
:10057000B1FE06C060916502809170020E94010286
:10058000B2FE06C060916502809171020E94010274
:10059000B3FE06C060916502809172020E94010262
:1005A000B4FE06C060916502809173020E94010250
:1005B000B5FE06C060916502809174020E9401023E
:1005C000B6FE54C060916502809175020E940102DE
:1005D0004DC0133079F06091630280916A0214304B
:1005E00009F0B7CF0E940102B4CF609163028091FD
:1005F0006802F8CF6091630280916902F3CFEB2D1E
:10060000F0E0E45BFD4FB490B6FE06C06091650279
:1006100080916F020E940102B5FE06C060916502E2
:10062000809170020E940102B4FE06C060916502D2
:10063000809171020E940102B3FE06C060916502C2
:10064000809172020E940102B2FE06C060916502B2
:10065000809173020E940102B1FE06C060916502A2
:10066000809174020E940102B0FCACCF2197C601B8
:1006700002C095958795CA95E2F780FF08C01530AE
:1006800030F460916502809176020E9401028091AF
:1006900078029091790201960E9477026091660239
:1006A00080916F020E940102609166028091700247
:1006B0000E94010260916602809171020E94010213
:1006C00060916602809172020E940102609166024E
:1006D000809173020E94010260916602809174020F
:1006E0000E94010260916602809175020E940102DF
:1006F00060916602809176020E9401021230F1F050
:1007000090F460916402809167021130A1F08091B1
:100710007802909179029301281B390BC9010E943C
:1007200077021F5F03CF133071F0609164028091F4
:100730006A02143061F70E940102E9CF60916402FD
:1007400080916802F8CF6091640280916902F3CFD2
:1007500080916C028F3F29F490916B029F3F09F4C6
:100760004EC094FE0AC0609163020E940102609133
:10077000650280916E020E94010295FE0CC060919C
:10078000630280916B020E94010260916502809178
:100790006D020E9401028091780290917902019687
:1007A0000E9477026091640280916C020E940102B3
:1007B0006091660280916E020E9401026091640263
:1007C00080916B020E9401026091660280916D022D
:1007D0000E940102209178023091790281ED97E028
:1007E000821B930BDF91CF911F91FF90EF90DF90D1
:1007F000CF90BF909F907F906F900C947702DF9185
:10080000CF911F91FF90EF90DF90CF90BF909F907E
:100810007F906F9008953FB7F89480915E02909119
:100820005F02A0916002B091610226B5A89B05C04D
:100830002F3F19F00196A11DB11D3FBFBA2FA92F5F
:10084000982F8827BC01CD01620F711D811D911D5C
:1008500042E0660F771F881F991F4A95D1F70895C8
:100860000F931F938091C2029091C3028130910532
:1008700011F130F00297F9F000E010E098010EC09D
:100880000E940B040091B7021091B8022091B902A6
:100890003091BA02060F171F281F391F0093AF02AD
:1008A0001093B0022093B1023093B2021092C102B1
:1008B0001F910F9108952FB7F8948091AB029091FA
:1008C000AC02A091AD02B091AE022FBF0091B30275
:1008D0001091B4022091B5023091B602080F191F91
:1008E0002A1F3B1FDBCFCF92DF92EF92FF920F9335
:1008F0001F936091B3027091B4028091B502909100
:10090000B6022FB7F894C090AB02D090AC02E09042
:10091000AD02F090AE022FBF2091C2023091C3020F
:100920002115310539F02330310528F160E070E000
:10093000CB011AC0C090B702D090B802E090B902C3
:10094000F090BA020E940B040091AF021091B00225
:100950002091B1023091B202C01AD10AE20AF30A20
:100960006C0D7D1D8E1D9F1D1F910F91FF90EF90AF
:10097000DF90CF9008956C0D7D1D8E1D9F1DC09042
:10098000AF02D090B002E090B102F090B2026C19C8
:100990007D098E099F09E8CFCF93DF939C01FC016D
:1009A000EA5FFD4F8491F901E054FE4FD491F901C3
:1009B000E658FE4FC491CC2379F081110E949A0130
:1009C000EC2FF0E0EE0FFF1FE45DFE4FA591B49118
:1009D000EC91ED2381E009F480E0DF91CF9108955F
:1009E000CF93DF93C0915702D091580287E30E94C2
:1009F0006002C81BD90BD7FF03C0D195C195D1099F
:100A000081E040914202509143024C175D070CF087
:100A100080E0DF91CF91089586E30E9460022091EB
:100A20004C0230914D02281739075CF486E30E948E
:100A3000600221E040914E0250914F0284179507C9
:100A40000CF020E0822F0895CF92DF92EF92FF9278
:100A50002091C2023091C3022130310569F180F04A
:100A60002230310549F12091CC023091CD02232B67
:100A700009F040E0842FFF90EF90DF90CF90089531
:100A80000E9473046B017C0120E034E244E759E4E6
:100A90006091C4027091C5028091C6029091C70214
:100AA0000E94620C0E94360D41E0C616D706E80689
:100AB000F906C8F640E0D7CF0E9473046B017C01B1
:100AC00020E030E04AE754E4E3CF0F931F93CF9345
:100AD000DF93EC0188819981009759F02A813B814D
:100AE0002617370730F081E0DF91CF911F910F91EA
:100AF00008958B016F5F7F4F0E94920E009759F00F
:100B0000998388831B830A832C813D81232B59F78A
:100B1000FC011082E8CF80E0E7CFCF93DF93EC01B8
:100B200088819981009711F00E94090E198218821C
:100B30001D821C821B821A82DF91CF910895EF9251
:100B4000FF920F931F93CF93DF93EC017B018A01F8
:100B5000BA010E94650581110BC0CE010E948D056E
:100B6000CE01DF91CF911F910F91FF90EF900895EB
:100B70001D830C83B701888199810E947C0FF0CF7F
:100B8000FC01118210821382128215821482FB01F1
:100B900001900020E9F73197AF01461B570B0C94E9
:100BA0009F05FC0180819181009711F00C94090E42
:100BB0000895AF92BF92CF92DF92EF92FF920F9380
:100BC0001F93CF93DF9300D000D01F921F92CDB719
:100BD000DEB78C01CDB6DEB6FC0184819581049729
:100BE0000CF04AC01A8219821C821B821E821D824E
:100BF00080E18F831886BE01695F7F4FFB01019002
:100C00000020E9F73197AF01461B570BCE01019643
:100C10000E949F05F801A080B180A114B10409F4DD
:100C20005DC0E480F580E114F104B9F08D819E810E
:100C3000E80EF91EB701CE0101960E9465058823D2
:100C400009F44CC029813A818D819E81B501820FC2
:100C5000931F0E947C0FFE82ED8269817A8161156B
:100C6000710509F440C04D815E81C8010E949F0555
:100C7000CE0101960E94D105F801E480F580C701FC
:100C800001962DB73EB7281B390B0FB6F8943EBF1F
:100C90000FBE2DBFEDB7FEB731965F01892B21F056
:100CA000E114F10421F5108260E0C5010E94820286
:100CB0000FB6F894DEBE0FBECDBE28960FB6F894E0
:100CC000DEBF0FBECDBFDF91CF911F910F91FF907F
:100CD000EF90DF90CF90BF90AF900895CE01019636
:100CE0000E948D05BACFC8010E948D05C1CFF801C1
:100CF00060817181A701C5010E94830FF501EE0D8E
:100D0000FF1DD1CF0F931F93CF93DF9300D01F927E
:100D10001F92CDB7DEB7809153028F93809152021C
:100D20008F9386E092E09F938F938E010F5F1F4F0A
:100D30001F930F930E94920F60E0C8010E948202ED
:100D40000F900F900F900F900F900F900F900F90AB
:100D50000F900F900F90DF91CF911F910F910895F9
:100D60001F93CF93DF93EC01162F0E94200D1817CD
:100D700039F0612FCE01DF91CF911F910C94280D96
:100D8000DF91CF911F9108950C94200D1F920F9227
:100D90000FB60F9211242F933F938F939F93AF938E
:100DA000BF938091AB029091AC02A091AD02B09143
:100DB000AE0230915D0223E0230F2D3758F50196E6
:100DC000A11DB11D20935D028093AB029093AC02F4
:100DD000A093AD02B093AE0280915E0290915F024B
:100DE000A0916002B09161020196A11DB11D809396
:100DF0005E0290935F02A0936002B0936102BF9184
:100E0000AF919F918F913F912F910F900FBE0F90B7
:100E10001F90189526E8230F0296A11DB11DD2CF71
:100E2000CF93DF9300D000D0CDB7DEB7789484B5F0
:100E3000826084BD84B5816084BD85B5826085BDD6
:100E400085B5816085BD80916E00816080936E0064
:100E50001092810080918100826080938100809156
:100E60008100816080938100809180008160809307
:100E700080008091B10084608093B1008091B000C7
:100E800081608093B0008091910082608093910096
:100E900080919100816080939100809190008160A9
:100EA000809390008091A10082608093A100809146
:100EB000A10081608093A1008091A0008160809357
:100EC000A000809121018260809321018091210105
:100ED00081608093210180912001816080932001B5
:100EE00080917A00846080937A0080917A00826099
:100EF00080937A0080917A00816080937A0080915B
:100F00007A00806880937A001092C10084E0809318
:100F1000770212E310936702B3E3B0936802A4E38D
:100F2000A0936902F5E3F0936A028FEF80936B025E
:100F300080936C02EAE2E0936F027BE270937002AE
:100F40006CE2609371025DE2509372024EE2409354
:100F500073023FE23093740220E32093750291E321
:100F60009093760280936D0280936E0210926202DB
:100F70001092630281E08093640280936502109274
:100F8000660210937A02B0937B02A0937C02F093E6
:100F90007D02E0937E0270937F0260938002509303
:100FA00081024093820230938302209384029093C3
:100FB000850210E080917702181798F4812F90E055
:100FC0009C012E593D4F790160916402F901808D99
:100FD0000E94010261E0F701808D0E942F021F5FD5
:100FE000E9CF02E612E08AE6E82E82E0F82E609170
:100FF0006602F801848D0E94010261E0F801848D8F
:101000000E942F020F5F1F4FE016F10681F78091BB
:101010006C028F3FA1F0609164020E94010261E0C6
:1010200080916C020E942F026091660280916E0294
:101030000E94010261E080916E020E942F02809165
:101040006B028F3FA1F0609164020E94010261E097
:1010500080916B020E942F026091660280916D0266
:101060000E94010261E080916D020E942F0280EDDA
:1010700097E0909379028093780260E082E00E948A
:101080002F0260E083E00E942F0260E084E00E9473
:101090002F0260E086E30E942F0260E087E30E9457
:1010A0002F0260E088E30E942F0261E085E00E9449
:1010B0002F0261E086E00E942F0290E080E00E9413
:1010C000C40690E0880F991F90934F0280934E02C0
:1010D00081E090E00E94C40690E0880F991F9093F1
:1010E0004D0280934C0282E090E00E94C40690E0A2
:1010F000880F991F90934B0280934A0283E090E0FF
:101100000E94C40690E0880F991F90934902809333
:10111000480284E090E00E94C40690E0880F991F86
:10112000909358028093570285E090E00E94C40695
:1011300090E0909356028093550286E090E00E94E2
:10114000C40690E0909347028093460287E090E0C7
:101150000E94C40690E0909345028093440288E088
:1011600090E00E94C40690E0909343028093420274
:10117000BB24B394A0E0EA2EA0E0FA2EAA24A39404
:10118000B9E0CB2ED12C82E090E00E94CC048823E1
:1011900009F499C082E090E00E94CC048B259091E4
:1011A0005002891390C082E090E00E94CC048093AA
:1011B00050020091590210915A020F5F1F4F109375
:1011C0005A02009359020E9430040115110509F0DA
:1011D000AEC180915202909153029093430280934A
:1011E00042020530110509F0C1C18091520290916F
:1011F0005302909349028093480280915702909144
:101200005802909353028093520260914E02709163
:101210004F0277FF02C06F5F7F4F7595679590E033
:1012200080E00E94B00660914C0270914D0277FF01
:1012300002C06F5F7F4F7595679581E090E00E94D7
:10124000B00660914A0270914B0277FF02C06F5F57
:101250007F4F7595679582E090E00E94B00660919F
:1012600048027091490277FF02C06F5F7F4F75950A
:10127000679583E090E00E94B006609157027091FC
:10128000580277FF02C06F5F7F4F7595679584E0C6
:1012900090E00E94B0066091550285E090E00E94C7
:1012A000B0066091460286E090E00E94B006609130
:1012B000440287E090E00E94B0066091420288E01C
:1012C00090E00E94B00682E090E00E94CC04811180
:1012D00006C082E090E00E94CC048093500283E03C
:1012E00090E00E94CC048823C1F083E090E00E944B
:1012F000CC048B259091510289130FC083E090E0BC
:101300000E94CC048093510280915202909153022A
:101310000196909353028093520283E090E00E94E2
:10132000CC04811106C083E090E00E94CC0480933D
:10133000510284E090E00E94CC048823C1F084E054
:1013400090E00E94CC048B259091540289130FC029
:1013500084E090E00E94CC04809354028091520279
:10136000909153020197909353028093520284E02C
:1013700090E00E94CC04811106C084E090E00E94BD
:10138000CC048093540280915C02882309F4DBC171
:101390008091590290915A026BE072E0009709F433
:1013A0004DC1019749F40E94240560E172E0882351
:1013B00009F444C10E9482068091590290915A0218
:1013C000029739F40E942405882309F444C10E943D
:1013D00082068091590290915A02039739F40E9433
:1013E0002405882309F446C10E948206809159028F
:1013F00090915A02049739F40E942405882309F435
:1014000048C10E9482068091590290915A02059724
:1014100039F40E942405882309F44AC10E948206F7
:101420008091590290915A02069739F40E9424053E
:10143000882309F44CC10E94820680915902909140
:101440005A02079739F40E942405882309F44EC1F3
:101450000E9482068091590290915A02089739F4AD
:101460000E942405882309F450C10E9482068091BD
:10147000590290915A02099739F40E942405882351
:1014800009F452C10E9482068091590290915A0239
:101490000A9724F010925A02109259028091590230
:1014A00090915A0297FF04C0D0925A02C0925902FA
:1014B00082E090E00E94CC048823D9F083E090E0A1
:1014C0000E94CC048823A9F084E090E00E94CC0420
:1014D000882379F080915B0281110BC080915C02BE
:1014E0008B2580935C02A0925B0210925A021092AC
:1014F000590282E090E00E94CC04811111C083E087
:1015000090E00E94CC0481110BC084E090E00E9426
:10151000CC04811105C080915B02811110925B02A5
:10152000E114F10409F42FCE0E9400002CCE01300A
:10153000110549F480914E0290914F02909353020D
:10154000809352024ECE0230110501F58091520275
:101550009091530290934F0280934E0280914C02DF
:1015600090914D02909353028093520206301105E0
:1015700001F580915202909153029093580280930A
:10158000570280915502909156023BCE03301105CF
:1015900001F5809152029091530290934D028093F5
:1015A0004C0280914A0290914B0290935302809397
:1015B00052020730110591F5809152029091530229
:1015C0009093560280935502809146029091470273
:1015D00018CE0430110509F004CE8091520290918A
:1015E000530290934B0280934A028091480290915B
:1015F000490290935302809352020930110509F079
:1016000004CE8091520290915302909345028093B0
:1016100044028091420290914302F3CD08301105BB
:1016200061F7809152029091530290934702809308
:1016300046028091440290914502E3CDCE0101968D
:101640000E94C005CE0101960E94D905CE010196E7
:101650000E94D105B1CE64E172E0CE0101960E94F4
:10166000C005CE0101960E94D905CE0101960E94C7
:10167000D105AFCE68E172E0CE0101960E94C005AF
:10168000CE0101960E94D905CE0101960E94D10596
:10169000ADCE6CE172E0CE0101960E94C005CE0194
:1016A00001960E94D905CE0101960E94D105ABCECC
:1016B00060E272E0CE0101960E94C005CE01019663
:1016C0000E94D905CE0101960E94D105A9CE65E2FE
:1016D00072E0CE0101960E94C005CE0101960E94E3
:1016E000D905CE0101960E94D105A7CE69E272E02C
:1016F000CE0101960E94C005CE0101960E94D90537
:10170000CE0101960E94D105A5CE6DE272E0CE0118
:1017100001960E94C005CE0101960E94D905CE0116
:1017200001960E94D105A3CE62E372E0CE0101963C
:101730000E94C005CE0101960E94D905CE010196F6
:101740000E94D105A1CE87E30E946002009157025A
:1017500010915802801791079CF40E94F00488238E
:1017600079F00E940C05882359F088E30E946002FA
:10177000209155023091560261E0821793070CF0D8
:1017800060E085E00E94010287E30E946002081782
:1017900019079CF40E94F004882379F00E940C053C
:1017A000882359F088E30E9460022091550230910D
:1017B000560261E0821793070CF060E086E00E9419
:1017C000010267E372E0CE0101960E94C005CE01DE
:1017D00001960E94D905CE0101960E94D10568CEDE
:1017E0000F931F93CF93DF931092AA021092B3022C
:1017F0001092B4021092B5021092B6021092B70283
:101800001092B8021092B9021092BA021092BB0262
:101810001092BC021092BD021092BE021092C00241
:101820001092BF021092C1021092CD021092CC020F
:10183000009140021091410281E090E001301105D9
:1018400011F090E080E09093410280934002CFEA53
:10185000D2E082E090E09093C3028093C20280E0E5
:1018600090E0A0E8BFE38093C4029093C502A093E8
:10187000C602B093C7020E9430040130110591F0F6
:1018800080913E0290913F02892B89F4D0933D02D2
:10189000C0933C02D0933F02C0933E021092CF020D
:1018A0001092CE02DF91CF911F910F910895E09198
:1018B0003C02F0913D02D0A3C78FD0933D02C0936C
:1018C0003C02ECCF0E94750C0C94E60C0E94D80CE4
:1018D00038F00E94DF0C20F0952311F00C94CF0C0F
:1018E0000C94D50C11240C941A0D0E94F70C70F373
:1018F000959FC1F3950F50E0551F629FF001729FB5
:10190000BB27F00DB11D639FAA27F00DB11DAA1FC3
:10191000649F6627B00DA11D661F829F2227B00D10
:10192000A11D621F739FB00DA11D621F839FA00D9B
:10193000611D221F749F3327A00D611D231F849FEB
:10194000600D211D822F762F6A2F11249F57504042
:101950009AF0F1F088234AF0EE0FFF1FBB1F661FBD
:10196000771F881F91505040A9F79E3F510580F086
:101970000C94CF0C0C941A0D5F3FE4F3983ED4F313
:10198000869577956795B795F795E7959F5FC1F72A
:10199000FE2B880F911D9695879597F9089597F9D5
:1019A0009F6780E870E060E008959FEF80EC089505
:1019B00000240A941616170618060906089500242E
:1019C0000A9412161306140605060895092E0394A8
:1019D000000C11F4882352F0BB0F40F4BF2B11F41C
:1019E00060FF04C06F5F7F4F8F4F9F4F089557FD7B
:1019F0009058440F551F59F05F3F71F04795880F7D
:101A000097FB991F61F09F3F79F087950895121613
:101A100013061406551FF2CF4695F1DF08C01616BF
:101A200017061806991FF1CF869571056105089470
:101A30000895E894BB2766277727CB0197F9089587
:101A4000F999FECF92BD81BDF89A992780B5089586
:101A5000262FF999FECF1FBA92BD81BD20BD0FB6CA
:101A6000F894FA9AF99A0FBE019608950E94FF0C15
:101A700088F09F5798F0B92F9927B751B0F0E1F04F
:101A8000660F771F881F991F1AF0BA95C9F714C0FF
:101A9000B13091F00E94190DB1E008950C94190D28
:101AA000672F782F8827B85F39F0B93FCCF3869538
:101AB00077956795B395D9F73EF490958095709595
:101AC00061957F4F8F4F9F4F0895EE0FFF1F881F27
:101AD0008BBF0790F691E02D19940F931F93CF932E
:101AE000DF938230910510F482E090E0E091D20221
:101AF000F091D30230E020E0B0E0A0E0309799F41C
:101B00002115310509F44AC0281B390B2430310551
:101B1000D8F58A819B816115710589F1FB01938359
:101B20008283FE0111C040815181028113814817D7
:101B30005907E0F04817590799F4109761F0129689
:101B40000C93129713961C933296CF01DF91CF918D
:101B50001F910F9108950093D2021093D302F4CFF6
:101B60002115310551F04217530738F0A901DB0167
:101B70009A01BD01DF01F801C1CFEF01F9CF9093C8
:101B8000D3028093D202CDCFFE01E20FF31F8193E7
:101B900091932250310939832883D7CF2091D002E5
:101BA0003091D102232B41F42091020230910302A3
:101BB0003093D1022093D002209100023091010293
:101BC0002115310541F42DB73EB7409104025091E3
:101BD0000502241B350BE091D002F091D102E217EF
:101BE000F307A0F42E1B3F0B2817390778F0AC0140
:101BF0004E5F5F4F2417350748F04E0F5F1F50931D
:101C0000D1024093D002819391939FCFF0E0E0E026
:101C10009CCFCF93DF930097E9F0FC0132971382BA
:101C20001282A091D202B091D302ED0130E020E007
:101C30001097A1F420813181820F931F2091D0024F
:101C40003091D1022817390709F061C0F093D10211
:101C5000E093D002DF91CF910895EA01CE17DF071C
:101C6000E8F54A815B819E0141155105B1F7E90113
:101C7000FB83EA8349915991C40FD51FEC17FD07E7
:101C800061F4808191810296840F951FE901998307
:101C90008883828193819B838A83F0E0E0E01296BF
:101CA0008D919C9113970097B9F52D913C911197C7
:101CB000CD010296820F931F2091D0023091D10264
:101CC0002817390739F6309751F51092D302109240
:101CD000D202B093D102A093D002BCCFD383C283EF
:101CE00040815181840F951FC817D90761F44E5F59
:101CF0005F4F88819981480F591F518340838A81A2
:101D00009B81938382832115310509F0B0CFF09335
:101D1000D302E093D2029ECFFD01DC01C0CF13823B
:101D20001282D7CF4F925F926F927F928F929F9243
:101D3000AF92BF92CF92DF92EF92FF920F931F93D9
:101D4000CF93DF938C01009799F4CB01DF91CF9172
:101D50001F910F91FF90EF90DF90CF90BF90AF90C9
:101D60009F908F907F906F905F904F900C946D0D2F
:101D7000FC01E60FF71F9C0122503109E217F3071F
:101D800008F4AEC0D901CD91DC911197C617D707E1
:101D900020F1C530D10578F0CE010497861797075A
:101DA00050F0C61BD70B2297C193D1936D937C93B0
:101DB000CF010E94090EC801DF91CF911F910F91B1
:101DC000FF90EF90DF90CF90BF90AF909F908F905B
:101DD0007F906F905F904F9008955B01AC1ABD0AA1
:101DE0004C018C0E9D1EA091D202B091D302512CB9
:101DF000412CF12CE12C109731F58091D00290917B
:101E0000D1028815990509F05CC04616570608F0FE
:101E100058C08091000290910102009741F48DB763
:101E20009EB74091040250910502841B950BE81760
:101E3000F90708F055C0F093D102E093D002F90100
:101E400071836083B8CF8D919C91119712966C909D
:101E5000129713967C901397A815B90559F56C0144
:101E600042E0C40ED11CCA14DB0420F1AC014A19B3
:101E70005B09DA011296159780F0628273825183B2
:101E80004083D9016D937C93E114F10471F0D70183
:101E90001396FC93EE9312978ECF22968C0F9D1F74
:101EA000F90191838083F301EFCFF093D302E093A4
:101EB000D20281CF4816590608F42C017D01D301C6
:101EC0009ACFCB010E946D0D7C01009749F0AE01C5
:101ED000B8010E94730FC8010E94090E87016BCFE1
:101EE00010E000E068CFFB01DC0102C001900D9220
:101EF00041505040D8F70895FB01DC0101900D924C
:101F00000020E1F70895FB01DC014150504048F00A
:101F100001900D920020C9F701C01D924150504020
:101F2000E0F708950F931F93CF93DF93CDB7DEB7FC
:101F30002E970FB6F894DEBF0FBECDBF0E891F8956
:101F400086E08C831A8309838FEF9FE79E838D83BE
:101F5000AE01465E5F4F688D798DCE0101960E947D
:101F6000C20F2F813885020F131FF80110822E96A1
:101F70000FB6F894DEBF0FBECDBFDF91CF911F919A
:101F80000F9108952F923F924F925F926F927F929E
:101F90008F929F92AF92BF92CF92DF92EF92FF9279
:101FA0000F931F93CF93DF9300D000D000D01F92E8
:101FB0001F92CDB7DEB77C013B018A01FC0117827D
:101FC0001682838181FFDDC1CE0101965C01F7019C
:101FD0009381F30193FD859193FF81913F018823C4
:101FE00009F453C1853239F493FD859193FF8191B2
:101FF0003F01853229F4B70190E00E94DA11E7CF62
:10200000912C212C312CFFE1F31538F08B3211F19A
:1020100090F4803209F1833229F137FC3CC020ED85
:10202000280F2A3050F536FE20C08AE0989E200DF9
:102030001124922E06C08D3291F0803371F768948E
:1020400030F8F30193FD859193FF81913F01811158
:10205000DACF21C0689431F8689432F8F2CF6894EE
:1020600033F8EFCF689434F8ECCFEAE02E9E200DE1
:102070001124222E689435F8E4CF8E3229F436FCF0
:1020800004C1689436F8DDCF8C3619F4689437F8BB
:10209000D8CF8836B1F2982F9F7D95549330E0F0D9
:1020A0008336A1F18337C1F1833509F063C028017C
:1020B000F2E04F0E511CF801C080D180692D70E014
:1020C00036FC02C06FEF7FEFC6010E94C4114C01C5
:1020D000689437F882010AC00C5F1F4FFFE3F98351
:1020E00088248394912C6501E89437F833FE2DC041
:1020F000522C8114910471F5552009F468CFB70171
:1021000080E290E00E94DA115A94F6CFF8018081C3
:1021100089830E5F1F4FE4CF2801F2E04F0E511C60
:10212000F801C080D180692D70E036FC02C06FEFED
:102130007FEFC6010E94CF114C018201D5CFB701BC
:1021400080E290E00E94DA112A942814190409F020
:10215000B0F7CECFF60137FC859137FE81916F0144
:10216000B70190E00E94DA1151105A94F1E08F1AF1
:102170009108BFCF843619F0893609F077C0F8018D
:1021800037FE6BC060817181828193810C5F1F4F2C
:10219000F32DFF763F2E97FF09C09095809570959F
:1021A00061957F4F8F4F9F4F689437F82AE030E05A
:1021B000A5010E940A12C82ECA188C2C432C36FE88
:1021C0000CC0E89440F8C91440F434FE05C032FC59
:1021D00003C0F32DFE7E4F2E892C44FEAAC0FE01C3
:1021E000EC0DF11D8081803309F09CC0242D297EE7
:1021F000422E842D8870582E43FCAAC040FEA4C0F5
:102200009C2C821418F42C0C922C981844FEA6C016
:10221000B70180E390E00E94DA1142FE09C088E72E
:1022200090E041FE02C088E590E0B7010E94DA111B
:10223000C91408F49FC0CA94D12C9FEFC91AD90AB7
:10224000CA0CDB1CF60182916F01B70190E00E947D
:10225000DA11AC14BD04B1F74FCF60817181072E44
:10226000000C880B990B0E5F1F4F92CFD32CE89474
:10227000D4F82AE030E08537E1F1232D297FD22EF2
:102280008F36A9F1F0F4883551F1F70186819781F5
:102290002B960FB6F894DEBF0FBECDBFDF91CF9166
:1022A0001F910F91FF90EF90DF90CF90BF90AF9074
:1022B0009F908F907F906F905F904F903F902F9066
:1022C0000895803749F0883701F7D4FE02C068943A
:1022D000D2F820E130E00DC06894D4F8F6CF34FE97
:1022E00003C0822F8660D82E20E132E002C028E0B1
:1022F00030E0F801D7FE0FC0608171818281938147
:102300000C5F1F4FA5010E940A12C82ECA183D2C4F
:10231000E89437F852CF6081718190E080E00E5FE1
:102320001F4FF0CF42FC02C0839463CF8394839409
:1023300060CF842D867809F45CCFF6CFB70180E2B8
:1023400090E00E94DA1183948214C0F3512C5ECF86
:10235000522C5818821408F459CFF8CF842D86785F
:1023600009F466CF8BE241FE80E247FC8DE2B701C3
:1023700090E05CCFB70180E390E00E94DA119A947C
:1023800057CF8FEF9FEF84CFFC01059061507040D5
:102390000110D8F7809590958E0F9F1F0895FC012E
:1023A0006150704001900110D8F7809590958E0F84
:1023B0009F1F08950F931F93CF93DF93182F092F1B
:1023C000EB018B8181FD09C01FEF0FEF812F902F53
:1023D000DF91CF911F910F91089582FF14C02E813C
:1023E0003F818C819D81281739073CF4E881F98170
:1023F000CF0101969983888310838E819F810196F6
:102400009F838E83E3CFE885F985812F1995892BEA
:10241000A1F3DACFFA01AA27283051F1203181F156
:10242000E8946F936E7F6E5F7F4F8F4F9F4FAF4FDC
:10243000B1E03ED0B4E03CD0670F781F891F9A1FEF
:10244000A11D680F791F8A1F911DA11D6A0F711DA3
:10245000811D911DA11D20D009F468943F912AE0AF
:10246000269F11243019305D3193DEF6CF01089597
:10247000462F4770405D4193B3E00FD0C9F7F6CFC8
:10248000462F4F70405D4A3318F0495D31FD405290
:10249000419302D0A9F7EACFB4E0A6959795879526
:1024A00077956795BA95C9F7009761057105089505
:1024B0009B01AC010A2E06945795479537952795B1
:1024C000BA95C9F7620F731F841F951FA01D089549
:0424D000F894FFCFAE
:1024D4000000D40280002530346400534554500079
:1024E40049487500494C75004F4875004F4C7500BC
:1024F40053455475004F754C00744F6E00744F462D
:0C2504004600644946460072756E0000F7
:00000001FF
