:020000040000FA
:100000000C94A2000C94CA000C94CA000C94CA0070
:100010000C94CA000C94CA000C94CA000C94CA0038
:100020000C94CA000C94CA000C94CA000C94CA0028
:100030000C94CA000C94CA000C94CA000C94CA0018
:100040000C9473050C94CA000C94CA000C94CA005A
:100050000C94CA000C94CA000C94CA000C94CA00F8
:100060000C94CA000C94CA00000000002300260073
:10007000290000000000240027002A0000000000E2
:10008000250028002B0004040404040404040202D4
:100090000202020203030303030301020408102007
:1000A0004080010204081020010204081020000012
:1000B0000008000201000003040700000000000027
:1000C00000007E306D79335B5F707F7B771F4E3D24
:1000D0004F4700000000000000000000000000008A
:1000E000000000002200000000204E780000040103
:1000F00000007E306D79335B5F707F7B0000000015
:10010000000000771F4E3D4F475E373038000E002D
:10011000157E6773055B0F3E0000003B004E0078C4
:10012000000802771F0D3D6F475E17103800300042
:10013000151D6773055B0F1C000000000000000028
:100140000000DB0911241FBECFEFD8E0DEBFCDBF1A
:1001500011E0A0E0B1E0E2E6F0E202C005900D920D
:10016000A833B107D9F721E0A8E3B1E001C01D929F
:10017000AE3CB207E1F710E0C2EAD0E004C021973C
:10018000FE010E94870BC13AD107C9F70E94BD0545
:100190000C942F100C940000833081F028F48130EF
:1001A00099F08230A9F008958730A9F08830C9F01D
:1001B0008430B1F4809180008F7D03C080918000F5
:1001C0008F7780938000089584B58F7784BD0895DC
:1001D00084B58F7DFBCF8091B0008F778093B00086
:1001E00008958091B0008F7DF9CF1F93CF93DF9357
:1001F000282F30E0F901E255FF4F8491F901E656CE
:10020000FF4FD491F901EA57FF4FC491CC23A9F0D5
:10021000162F81110E94CC00EC2FF0E0EE0FFF1F93
:10022000E458FF4FA591B4918FB7F894EC91111158
:1002300008C0D095DE23DC938FBFDF91CF911F9153
:100240000895DE2BF8CFCF93DF9390E0FC01E656C4
:10025000FF4F24918A579F4FFC0184918823D1F04E
:1002600090E0880F991FFC01EE58FF4FA591B491C3
:10027000FC01E458FF4FC591D49161110EC09FB7A6
:10028000F8948C91E22FE0958E238C932881E223C1
:10029000E8839FBFDF91CF9108958FB7F894EC91D9
:1002A000E22BEC938FBFF6CF8230910538F0880FA8
:1002B000991F880F991F05970197F1F708956F927D
:1002C0007F929F92BF92CF92DF92EF92FF921F9305
:1002D000CF93DF937C01962E11E0C62ED12C81EDB9
:1002E000682E87E0782E80917101811708F40DC186
:1002F000C12FD0E0123009F455C008F047C060911A
:100300005D0180916101113009F449C0F701EC0FE2
:10031000FD1F3197B080B7FE4FC0B0FE06C06091A0
:100320005F01809169010E94F500B1FE06C06091F5
:100330005F0180916A010E94F500B2FE06C06091E3
:100340005F0180916B010E94F500B3FE06C06091D1
:100350005F0180916C010E94F500B4FE06C06091BF
:100360005F0180916D010E94F500B5FE06C06091AD
:100370005F0180916E010E94F500B6FE54C060914D
:100380005F0180916F010E94F5004DC0133079F03C
:1003900060915D0180916401143009F0B7CF0E9433
:1003A000F500B4CF60915D0180916201F8CF60915A
:1003B0005D0180916301F3CFEB2DF0E0EE53FF4F31
:1003C000B490B6FE06C060915F01809169010E9401
:1003D000F500B5FE06C060915F0180916A010E9440
:1003E000F500B4FE06C060915F0180916B010E9430
:1003F000F500B3FE06C060915F0180916C010E9420
:10040000F500B2FE06C060915F0180916D010E940F
:10041000F500B1FE06C060915F0180916E010E94FF
:10042000F500B0FCACCF2197C60102C09595879529
:10043000CA95E2F780FF08C0153030F460915F0183
:10044000809170010E94F50080917201909173017A
:1004500001960E94540160916001809169010E949F
:10046000F5006091600180916A010E94F500609141
:10047000600180916B010E94F500609160018091A4
:100480006C010E94F5006091600180916D010E94F5
:10049000F5006091600180916E010E94F50060910D
:1004A000600180916F010E94F50060916001809170
:1004B00070010E94F5001230F1F090F460915E013D
:1004C000809161011130A1F08091720190917301CE
:1004D0009301281B390BC9010E9454011F5F03CFF0
:1004E000133071F060915E0180916401143061F706
:1004F0000E94F500E9CF60915E0180916201F8CF22
:1005000060915E0180916301F3CF809166018F3F1E
:1005100029F4909165019F3F09F44EC094FE0AC0F2
:1005200060915D010E94F50060915F01809168011A
:100530000E94F50095FE0CC060915D0180916501FF
:100540000E94F50060915F01809167010E94F500B3
:10055000809172019091730101960E945401609103
:100560005E01809166010E94F500609160018091BA
:1005700068010E94F50060915E01809165010E9412
:10058000F50060916001809167010E94F500209163
:1005900072013091730181ED97E0821B930BDF9123
:1005A000CF911F91FF90EF90DF90CF90BF909F90E1
:1005B0007F906F900C945401DF91CF911F91FF9029
:1005C000EF90DF90CF90BF909F907F906F900895B5
:1005D0003FB7F8948091580190915901A0915A0128
:1005E000B0915B0126B5A89B05C02F3F19F001967D
:1005F000A11DB11D3FBFBA2FA92F982F8827BC017D
:10060000CD01620F711D811D911D42E0660F771FA4
:10061000881F991F4A95D1F708950F931F938091D2
:10062000BC019091BD018130910511F130F002972C
:10063000F9F000E010E098010EC00E94E80200917D
:10064000B1011091B2012091B3013091B401060FB4
:10065000171F281F391F0093A9011093AA01209387
:10066000AB013093AC011092BB011F910F91089523
:100670002FB7F8948091A5019091A601A091A701B0
:10068000B091A8012FBF0091AD011091AE01209152
:10069000AF013091B001080F191F2A1F3B1FDBCF9C
:1006A000CF92DF92EF92FF920F931F936091AD0173
:1006B0007091AE018091AF019091B0012FB7F89485
:1006C000C090A501D090A601E090A701F090A801EC
:1006D0002FBF2091BC013091BD012115310539F0AA
:1006E0002330310528F160E070E0CB011AC0C090E2
:1006F000B101D090B201E090B301F090B4010E943A
:10070000E8020091A9011091AA012091AB0130915A
:10071000AC01C01AD10AE20AF30A6C0D7D1D8E1DD0
:100720009F1D1F910F91FF90EF90DF90CF90089544
:100730006C0D7D1D8E1D9F1DC090A901D090AA013A
:10074000E090AB01F090AC016C197D098E099F0916
:10075000E8CFCF93DF939C01FC01E255FF4F8491DA
:10076000F901E656FF4FD491F901EA57FF4FC491C2
:10077000CC2399F081110E94CC00EC2FF0E0EE0F19
:10078000FF1FE859FF4FA591B491EC91ED2381E053
:1007900009F080E0DF91CF91089581E0FBCFCF9207
:1007A000DF92EF92FF922091BC013091BD01213088
:1007B000310569F180F02230310549F12091C601FF
:1007C0003091C701232B09F040E0842FFF90EF9078
:1007D000DF90CF9008950E9450036B017C0120E0D0
:1007E00034E244E759E46091BE017091BF01809109
:1007F000C0019091C1010E944D0A0E94580B41E036
:10080000C616D706E806F906C8F640E0D7CF0E941C
:1008100050036B017C0120E030E04AE754E4E3CF71
:100820000F931F93CF93DF93EC01888199810097F9
:1008300059F02A813B812617370730F081E0DF919C
:10084000CF911F910F9108958B016F5F7F4F0E9491
:10085000B20C009759F0998388831B830A832C81FB
:100860003D81232B59F7FC011082E8CF80E0E7CFD0
:10087000CF93DF93EC0188819981009711F00E945A
:10088000290C198218821D821C821B821A82DF9118
:10089000CF910895EF92FF920F931F93CF93DF9321
:1008A000EC017B018A01BA010E94100481110BC086
:1008B000CE010E943804CE01DF91CF911F910F919C
:1008C000FF90EF9008951D830C83B7018881998173
:1008D0000E94780DF0CFFC011182108213821282E7
:1008E00015821482FB0101900020E9F73197AF01D6
:1008F000461B570B0C944A04FC01808191810097A0
:1009000011F00C94290C0895AF92BF92CF92DF9210
:10091000EF92FF920F931F93CF93DF93CDB7DEB784
:1009200028970FB6F894DEBF0FBECDBF8C01CDB6B1
:10093000DEB6FC018481958104970CF04AC01A82CE
:1009400019821C821B821E821D8280E18F83188681
:10095000BE01695F7F4FFB0101900020E9F73197ED
:10096000AF01461B570BCE0101960E944A04F801C5
:10097000A080B180A114B10409F45DC0E480F580C9
:10098000E114F104B9F08D819E81E80EF91EB701E2
:10099000CE0101960E941004882309F44CC02981DD
:1009A0003A818D819E81B501820F931F0E94780D3F
:1009B000FE82ED8269817A816115710509F440C07A
:1009C0004D815E81C8010E944A04CE0101960E94B9
:1009D0007C04F801E480F580C70101962DB73EB78D
:1009E000281B390B0FB6F8943EBF0FBE2DBFEDB7D5
:1009F000FEB731965F01892B21F0E114F10421F556
:100A0000108260E0C5010E945F010FB6F894DEBE5F
:100A10000FBECDBE28960FB6F894DEBF0FBECDBF79
:100A2000DF91CF911F910F91FF90EF90DF90CF90CA
:100A3000BF90AF900895CE0101960E943804BACFBE
:100A4000C8010E943804C1CFF80160817181A701FB
:100A5000C5010E947F0DF501EE0DFF1DD1CF0F9353
:100A60001F93CF93DF9300D000D01F92CDB7DEB796
:100A7000809153018F93809152018F9386E091E092
:100A80009F938F938E010F5F1F4F1F930F930E94B1
:100A90008E0D60E0C8010E945F010F900F900F90D3
:100AA0000F900F900F900F900F900F900F900F904E
:100AB000DF91CF911F910F9108951F93CF93DF93F3
:100AC000EC01162F0E940B0B181739F0612FCE0185
:100AD000DF91CF911F910C94130BDF91CF911F9158
:100AE00008950C940B0B1F920F920FB60F921124C6
:100AF0002F933F938F939F93AF93BF938091A501C3
:100B00009091A601A091A701B091A8013091570141
:100B100023E0230F2D3758F50196A11DB11D209319
:100B200057018093A5019093A601A093A701B093CC
:100B3000A8018091580190915901A0915A01B0915A
:100B40005B010196A11DB11D80935801909359013D
:100B5000A0935A01B0935B01BF91AF919F918F9188
:100B60003F912F910F900FBE0F901F90189526E880
:100B7000230F0296A11DB11DD2CFCF93DF9300D0DA
:100B800000D000D0CDB7DEB7789484B5826084BD44
:100B900084B5816084BD85B5826085BD85B5816081
:100BA00085BD80916E00816080936E0010928100FF
:100BB00080918100826080938100809181008160BA
:100BC000809381008091800081608093800080917B
:100BD000B10084608093B1008091B0008160809307
:100BE000B00080917A00846080937A0080917A00CE
:100BF000826080937A0080917A00816080937A008D
:100C000080917A00806880937A001092C10094E00D
:100C1000909371011EE010936101B3E0B093620103
:100C200090936301A5E0A09364018FEF8093650129
:100C300080936601F6E0F0936901E7E0E0936A01D2
:100C400078E070936B0169E060936C015AE0509317
:100C50006D014BE040936E013CE030936F012DE05D
:100C600020937001809367018093680110925C016A
:100C700010925D0181E080935E0180935F0110928C
:100C8000600110937401B093750190937601A09365
:100C90007701F0937801E093790170937A01609382
:100CA0007B0150937C0140937D0130937E01209322
:100CB0007F0110E080917101181798F4812F90E066
:100CC0009C01245A3E4F790160915E01F901808DAB
:100CD0000E94F50061E0F701808D0E9423011F5FF3
:100CE000E9CF0CE511E084E6E82E81E0F82E609172
:100CF0006001F801848D0E94F50061E0F801848DA7
:100D00000E9423010F5F1F4FE016F10681F78091CB
:100D100066018F3FA1F060915E010E94F50061E0E5
:100D2000809166010E9423016091600180916801B9
:100D30000E94F50061E0809168010E94230180918A
:100D400065018F3FA1F060915E010E94F50061E0B6
:100D5000809165010E94230160916001809167018B
:100D60000E94F50061E0809167010E94230180EDFF
:100D700097E0909373018093720160E082E00E949B
:100D8000230160E08FE00E94230160E080E10E9487
:100D9000230160E081E10E94230190E080E00E9455
:100DA000710590E0880F991F90934F0180934E0139
:100DB00081E090E00E94710590E0880F991F909368
:100DC0004D0180934C0182E090E00E94710590E01B
:100DD000880F991F90934B0180934A0183E090E024
:100DE0000E94710590E0880F991F909349018093AC
:100DF000480184E090E00E94710590E0880F991FFF
:100E0000909347018093460185E090E00E94710530
:100E100090E0909345018093440186E090E00E9429
:100E2000710590E0909343018093420187E090E048
:100E30000E94710590E0909341018093400188E009
:100E400090E00E94710590E090933F0180933E01F5
:100E5000BB24B394A0E0EA2EA0E0FA2EB9E0CB2E9A
:100E6000D12C82E090E00E94A903882309F499C064
:100E700082E090E00E94A9038B2590915001891394
:100E800090C082E090E00E94A903809350010091FD
:100E90005501109156010F5F1F4F1093560100939B
:100EA00055010E940D030115110509F078C18091CB
:100EB00052019091530190933F0180933E01053080
:100EC000110509F08BC180915201909153019093CB
:100ED0004901809348018091460190914701909388
:100EE00053018093520160914E0170914F0177FF41
:100EF00002C06F5F7F4F7595679590E080E00E941C
:100F00005D0560914C0170914D0177FF02C06F5FEC
:100F10007F4F7595679581E090E00E945D05609137
:100F20004A0170914B0177FF02C06F5F7F4F75954B
:100F3000679582E090E00E945D05609148017091A4
:100F4000490177FF02C06F5F7F4F7595679583E01A
:100F500090E00E945D05609146017091470177FF26
:100F600002C06F5F7F4F7595679584E090E00E94A7
:100F70005D056091440185E090E00E945D0560910F
:100F8000420186E090E00E945D056091400187E0AB
:100F900090E00E945D0560913E0188E090E00E9433
:100FA0005D0582E090E00E94A903811106C082E005
:100FB00090E00E94A903809350018FE090E00E948E
:100FC000A9038823C1F08FE090E00E94A9038B253C
:100FD0009091510189130FC08FE090E00E94A90306
:100FE0008093510180915201909153010196909309
:100FF0005301809352018FE090E00E94A903811178
:1010000006C08FE090E00E94A9038093510180E127
:1010100090E00E94A9038823C1F080E190E00E9443
:10102000A9038B259091540189130FC080E190E0B2
:101030000E94A90380935401809152019091530121
:101040000197909353018093520180E190E00E94B8
:10105000A903811106C080E190E00E94A90380935A
:10106000540181E190E00E94A903882309F490C013
:1010700080915501909156016BE071E0009709F461
:1010800015C1019749F40E94CF0360E171E0882304
:1010900009F40CC10E942F058091550190915601D1
:1010A000029739F40E94CF03882309F40CC10E94EF
:1010B0002F058091550190915601039739F40E94B4
:1010C000CF03882309F40EC10E942F05809155019A
:1010D00090915601049739F40E94CF03882309F4B4
:1010E00010C10E942F0580915501909156010597DE
:1010F00039F40E94CF03882309F412C10E942F05FE
:101100008091550190915601069739F40E94CF03C2
:10111000882309F414C10E942F05809155019091F4
:101120005601079739F40E94CF03882309F416C1AA
:101130000E942F058091550190915601089739F42E
:101140000E94CF03882309F418C10E942F058091C3
:10115000550190915601099739F40E94CF038823D5
:1011600009F41AC10E942F058091550190915601F2
:101170000A9724F010925601109255018091550162
:101180009091560197FF04C0D0925601C09255012C
:10119000E114F10409F465CE0E94000062CE013032
:1011A000110549F480914E0190914F0190935301A4
:1011B0008093520184CE0230110501F580915201D5
:1011C0009091530190934F0180934E0180914C0177
:1011D00090914D0190935301809352010630110577
:1011E00001F58091520190915301909347018093B2
:1011F0004601809144019091450171CE0330110563
:1012000001F5809152019091530190934D0180938B
:101210004C0180914A0190914B019093530180932E
:1012200052010730110591F58091520190915301BF
:101230009093450180934401809142019091430134
:101240004ECE0430110509F03ACE809152019091B2
:10125000530190934B0180934A01809148019091F2
:10126000490190935301809352010930110509F00F
:101270003ACE809152019091530190934101809315
:10128000400180913E0190913F0129CE0830110527
:1012900061F78091520190915301909343018093A3
:1012A0004201809140019091410119CECE010196F9
:1012B0000E946B04CE0101960E948404CE01019627
:1012C0000E947C04E9CE64E171E0CE0101960E94A7
:1012D0006B04CE0101960E948404CE0101960E9407
:1012E0007C04E7CE68E171E0CE0101960E946B04B8
:1012F000CE0101960E948404CE0101960E947C04D6
:10130000E5CE6CE171E0CE0101960E946B04CE0146
:1013100001960E948404CE0101960E947C04E3CED3
:1013200060E271E0CE0101960E946B04CE0101964D
:101330000E948404CE0101960E947C04E1CE65E205
:1013400071E0CE0101960E946B04CE0101960E94CD
:101350008404CE0101960E947C04DFCE69E271E034
:10136000CE0101960E946B04CE0101960E94840476
:10137000CE0101960E947C04DDCE6DE271E0CE01CB
:1013800001960E946B04CE0101960E948404CE0156
:1013900001960E947C04DBCE62E371E0CE010196EF
:1013A0000E946B04CE0101960E948404CE01019636
:1013B0000E947C04D9CE0F931F93CF93DF9310929A
:1013C000A4011092AD011092AE011092AF011092E3
:1013D000B0011092B1011092B2011092B3011092BB
:1013E000B4011092B5011092B6011092B70110929B
:1013F000B8011092BA011092B9011092BB0110927B
:10140000C7011092C60100913C0110913D0181E09D
:1014100090E00130110511F090E080E090933D01E3
:1014200080933C01C9EAD1E082E090E09093BD0155
:101430008093BC0180E090E0A0E8BFE38093BE0110
:101440009093BF01A093C001B093C1010E940D030E
:101450000130110591F080913A0190913B01892B67
:1014600089F4D0933901C0933801D0933B01C093E4
:101470003A011092C9011092C801DF91CF911F91DA
:101480000F910895E0913801F0913901D0A3C78FF1
:10149000D0933901C0933801ECCF0E94600A0C94BC
:1014A000D10A0E94C30A38F00E94CA0A20F095238C
:1014B00011F00C94BA0A0C94C00A11240C94050B78
:1014C0000E94E20A70F3959FC1F3950F50E0551FFB
:1014D000629FF001729FBB27F00DB11D639FAA2789
:1014E000F00DB11DAA1F649F6627B00DA11D661FD8
:1014F000829F2227B00DA11D621F739FB00DA11DF9
:10150000621F839FA00D611D221F749F3327A00DB2
:10151000611D231F849F600D211D822F762F6A2F4E
:1015200011249F5750409AF0F1F088234AF0EE0FB3
:10153000FF1FBB1F661F771F881F91505040A9F7E0
:101540009E3F510580F00C94BA0A0C94050B5F3F46
:10155000E4F3983ED4F3869577956795B795F7951C
:10156000E7959F5FC1F7FE2B880F911D9695879594
:1015700097F9089597F99F6780E870E060E0089513
:101580009FEF80EC089500240A941616170618069B
:101590000906089500240A94121613061406050677
:1015A0000895092E0394000C11F4882352F0BB0F08
:1015B00040F4BF2B11F460FF04C06F5F7F4F8F4F6B
:1015C0009F4F089557FD9058440F551F59F05F3FA6
:1015D00071F04795880F97FB991F61F09F3F79F055
:1015E00087950895121613061406551FF2CF4695D7
:1015F000F1DF08C0161617061806991FF1CF869559
:101600007105610508940895E894BB27662777273C
:10161000CB0197F90895F999FECF92BD81BDF89A53
:10162000992780B50895262FF999FECF1FBA92BD4C
:1016300081BD20BD0FB6F894FA9AF99A0FBE0196B3
:1016400008952F923F924F925F926F927F928F9266
:101650009F92AF92BF92CF92DF92EF92FF920F9341
:101660001F93CF93DF93CDB7DEB7CA1BDB0B0FB64B
:10167000F894DEBF0FBECDBF09942A883988488808
:101680005F846E847D848C849B84AA84B984C8849E
:10169000DF80EE80FD800C811B81AA81B981CE0F95
:1016A000D11D0FB6F894DEBF0FBECDBFED0108957A
:1016B0000E94EA0A88F09F5798F0B92F9927B751EE
:1016C000B0F0E1F0660F771F881F991F1AF0BA95E6
:1016D000C9F714C0B13091F00E94040BB1E0089535
:1016E0000C94040B672F782F8827B85F39F0B93F27
:1016F000CCF3869577956795B395D9F73EF4909599
:101700008095709561957F4F8F4F9F4F0895EE0F95
:10171000FF1F0590F491E02D09940F931F93CF9331
:10172000DF938230910510F482E090E0E091CC01EB
:10173000F091CD0130E020E0B0E0A0E0309799F4E6
:101740002115310509F44AC0281B390B2430310515
:10175000D8F58A819B816115710589F1FB0193831D
:101760008283FE0111C0408151810281138148179B
:101770005907E0F04817590799F4109761F012964D
:101780000C93129713961C933296CF01DF91CF9151
:101790001F910F9108950093CC011093CD01F4CFC8
:1017A0002115310551F04217530738F0A901DB012B
:1017B0009A01BD01DF01F801C1CFEF01F9CF90938C
:1017C000CD018093CC01CDCFFE01E20FF31F8193B9
:1017D00091932250310939832883D7CF2091CA01B0
:1017E0003091CB01232B41F4209102013091030170
:1017F0003093CB012093CA01209100013091010167
:101800002115310541F42DB73EB7409104015091A7
:101810000501241B350BE091CA01F091CB01E217C1
:10182000F307A0F42E1B3F0B2817390778F0AC0103
:101830004E5F5F4F2417350748F04E0F5F1F5093E0
:10184000CB014093CA01819391939FCFF0E0E0E0F8
:101850009CCFCF93DF930097E9F0FC01329713827E
:101860001282A091CC01B091CD01ED0130E020E0D9
:101870001097A1F420813181820F931F2091CA011A
:101880003091CB012817390709F061C0F093CB01E3
:10189000E093CA01DF91CF910895EA01CE17DF07E7
:1018A000E8F54A815B819E0141155105B1F7E901D7
:1018B000FB83EA8349915991C40FD51FEC17FD07AB
:1018C00061F4808191810296840F951FE9019983CB
:1018D0008883828193819B838A83F0E0E0E0129683
:1018E0008D919C9113970097B9F52D913C9111978B
:1018F000CD010296820F931F2091CA013091CB0136
:101900002817390739F6309751F51092CD0110920A
:10191000CC01B093CB01A093CA01BCCFD383C283C7
:1019200040815181840F951FC817D90761F44E5F1C
:101930005F4F88819981480F591F518340838A8165
:101940009B81938382832115310509F0B0CFF093F9
:10195000CD01E093CC019ECFFD01DC01C0CF13820D
:101960001282D7CFB0E0A0E0E8EBFCE00C94230BB0
:101970008C01009751F4CB010E948D0B8C01C801A2
:10198000CDB7DEB7E0E10C943F0BFC01E60FF71F8B
:101990009C0122503109E217F30708F49DC0D901D8
:1019A000CD91DC911197C617D70798F0C530D105B6
:1019B00030F3CE0104978617970708F3C61BD70BA1
:1019C0002297C193D1936D937C93CF010E94290CF0
:1019D000D6CF5B01AC1ABD0A4C018C0E9D1EA091A6
:1019E000CC01B091CD01512C412CF12CE12C109760
:1019F00031F58091CA019091CB018815990509F0C4
:101A00005CC04616570608F058C0809100019091BE
:101A10000101009741F48DB79EB7409104015091A8
:101A20000501841B950BE817F90708F055C0F093E2
:101A3000CB01E093CA01F90171836083A0CF8D913E
:101A40009C91119712966C90129713967C90139715
:101A5000A815B90559F56C0142E0C40ED11CCA1491
:101A6000DB0420F1AC014A195B09DA0112961597E3
:101A700080F06282738251834083D9016D937C939D
:101A8000E114F10471F0D7011396FC93EE931297D1
:101A900076CF22968C0F9D1FF90191838083F301ED
:101AA000EFCFF093CD01E093CC0169CF48165906F2
:101AB00008F42C017D01D3019ACFCB010E948D0B3C
:101AC0007C01009749F0AE01B8010E946F0DC8017A
:101AD0000E94290C870153CF10E000E050CFFB019A
:101AE000DC0102C001900D9241505040D8F708959A
:101AF000FB01DC0101900D920020E1F70895FB014C
:101B0000DC014150504048F001900D920020C9F78F
:101B100001C01D9241505040E0F70895AEE0B0E0A2
:101B2000E4E9FDE00C942F0B0D891E8986E08C837F
:101B30001A8309838FEF9FE79E838D83AE01475EF3
:101B40005F4F6F89788DCE0101960E94B10D2F8174
:101B50003885020F131FF80110822E96E4E00C94D2
:101B60004B0BABE0B0E0E7EBFDE00C94210B7C010C
:101B70003B018A01FC0117821682838181FFC8C163
:101B8000CE0101965C01F7019381F30193FD8591EC
:101B900093FF81913F01882309F453C1853239F4C1
:101BA00093FD859193FF81913F01853229F4B7011F
:101BB00090E00E94A10FE7CF912C212C312CFFE166
:101BC000F31538F08B3211F190F4803209F1833241
:101BD00029F137FC3CC020ED280F2A3050F536FEA5
:101BE00020C08AE0989E200D1124922E06C08D32CE
:101BF00091F0803371F7689430F8F30193FD85918B
:101C000093FF81913F018111DACF21C0689431F8AF
:101C1000689432F8F2CF689433F8EFCF689434F8D0
:101C2000ECCFEAE02E9E200D1124222E689435F888
:101C3000E4CF8E3229F436FC04C1689436F8DDCF47
:101C40008C3619F4689437F8D8CF8836B1F2982FCB
:101C50009F7D95549330E0F08336A1F18337C1F135
:101C6000833509F063C02801F2E04F0E511CF801E2
:101C7000C080D180692D70E036FC02C06FEF7FEF2D
:101C8000C6010E948B0F4C01689437F882010AC08C
:101C90000C5F1F4FFFE3F98388248394912C650127
:101CA000E89437F833FE2DC0522C8114910471F55D
:101CB000552009F468CFB70180E290E00E94A10F9F
:101CC0005A94F6CFF801808189830E5F1F4FE4CFCD
:101CD0002801F2E04F0E511CF801C080D180692D1F
:101CE00070E036FC02C06FEF7FEFC6010E94960FD6
:101CF0004C018201D5CFB70180E290E00E94A10F94
:101D00002A942814190409F0B0F7CECFF60137FC55
:101D1000859137FE81916F01B70190E00E94A10F7C
:101D200051105A94F1E08F1A9108BFCF843619F000
:101D3000893609F077C0F80137FE6BC06081718188
:101D4000828193810C5F1F4FF32DFF763F2E97FF0B
:101D500009C090958095709561957F4F8F4F9F4FEB
:101D6000689437F82AE030E0A5010E94D10FC82E10
:101D7000CA188C2C432C36FE0CC0E89440F8C914C9
:101D800040F434FE05C032FC03C0F32DFE7E4F2E1E
:101D9000892C44FE95C0FE01EC0DF11D808180333D
:101DA00009F087C0242D297E422E842D8870582E5C
:101DB00043FC95C040FE8FC09C2C821418F42C0C60
:101DC000922C981844FE91C0B70180E390E00E94E5
:101DD000A10F42FE09C088E790E041FE02C088E5FD
:101DE00090E0B7010E94A10FC91408F48AC0CA94F8
:101DF000D12C9FEFC91AD90ACA0CDB1CF6018291BB
:101E00006F01B70190E00E94A10FAC14BD04B1F7BF
:101E10004FCF60817181072E000C880B990B0E5FEC
:101E20001F4F92CFD32CE894D4F82AE030E08537C6
:101E300039F1232D297FD22E8F3601F148F48835D0
:101E4000A9F0F701868197812B96E2E10C943D0B76
:101E5000803749F08837A9F7D4FE02C06894D2F8D9
:101E600020E130E00DC06894D4F8F6CF34FE03C012
:101E7000822F8660D82E20E132E002C028E030E0D8
:101E8000F801D7FE0FC060817181828193810C5F60
:101E90001F4FA5010E94D10FC82ECA183D2CE894EF
:101EA00037F867CF6081718190E080E00E5F1F4F4F
:101EB000F0CF42FC02C0839478CF8394839475CF93
:101EC000842D867809F471CFF6CFB70180E290E0D7
:101ED0000E94A10F83948214C0F3512C73CF522C13
:101EE0005818821408F46ECFF8CF842D867809F440
:101EF0007BCF8BE241FE80E247FC8DE2B70190E0B0
:101F000071CFB70180E390E00E94A10F9A946CCF4B
:101F10008FEF9FEF99CFFC01059061507040011049
:101F2000D8F7809590958E0F9F1F0895FC01615002
:101F3000704001900110D8F7809590958E0F9F1FEB
:101F400008950F931F93CF93DF93182F092FEB0161
:101F50008B8181FD09C01FEF0FEF812F902FDF9143
:101F6000CF911F910F91089582FF14C02E813F8160
:101F70008C819D81281739073CF4E881F981CF01D4
:101F800001969983888310838E819F8101969F8318
:101F90008E83E3CFE885F985812F0995892BA1F3FD
:101FA000DACFFA01AA27283051F1203181F1E894E3
:101FB0006F936E7F6E5F7F4F8F4F9F4FAF4FB1E03C
:101FC0003ED0B4E03CD0670F781F891F9A1FA11D37
:101FD000680F791F8A1F911DA11D6A0F711D811D38
:101FE000911DA11D20D009F468943F912AE0269FFD
:101FF00011243019305D3193DEF6CF010895462F5C
:102000004770405D4193B3E00FD0C9F7F6CF462F3C
:102010004F70405D4A3318F0495D31FD40524193A5
:1020200002D0A9F7EACFB4E0A69597958795779562
:102030006795BA95C9F700976105710508959B01E9
:10204000AC010A2E06945795479537952795BA9572
:10205000C9F7620F731F841F951FA01D0895F89480
:10206000FFCF0000CE01800025303464005345547A
:10207000500049487500494C75004F4875004F4C59
:10208000750053455475004F754C00744F6E0074C5
:0A2090004F46460064494646000032
:107E0000112484B714BE81FFF0D085E080938100F7
:107E100082E08093C00088E18093C10086E0809377
:107E2000C20080E18093C4008EE0C9D0259A86E02C
:107E300020E33CEF91E0309385002093840096BBD3
:107E4000B09BFECF1D9AA8958150A9F7CC24DD24C4
:107E500088248394B5E0AB2EA1E19A2EF3E0BF2EE7
:107E6000A2D0813461F49FD0082FAFD0023811F036
:107E7000013811F484E001C083E08DD089C08234E0
:107E800011F484E103C0853419F485E0A6D080C0E4
:107E9000853579F488D0E82EFF2485D0082F10E0AE
:107EA000102F00270E291F29000F111F8ED06801E7
:107EB0006FC0863521F484E090D080E0DECF843638
:107EC00009F040C070D06FD0082F6DD080E0C81688
:107ED00080E7D80618F4F601B7BEE895C0E0D1E017
:107EE00062D089930C17E1F7F0E0CF16F0E7DF06D8
:107EF00018F0F601B7BEE89568D007B600FCFDCFD4
:107F0000A601A0E0B1E02C9130E011968C91119780
:107F100090E0982F8827822B932B1296FA010C0160
:107F200087BEE89511244E5F5F4FF1E0A038BF0790
:107F300051F7F601A7BEE89507B600FCFDCF97BE46
:107F4000E89526C08437B1F42ED02DD0F82E2BD052
:107F50003CD0F601EF2C8F010F5F1F4F84911BD097
:107F6000EA94F801C1F70894C11CD11CFA94CF0C13
:107F7000D11C0EC0853739F428D08EE10CD085E9AC
:107F80000AD08FE07ACF813511F488E018D01DD067
:107F900080E101D065CF982F8091C00085FFFCCF94
:107FA0009093C60008958091C00087FFFCCF809118
:107FB000C00084FD01C0A8958091C6000895E0E648
:107FC000F0E098E1908380830895EDDF803219F02E
:107FD00088E0F5DFFFCF84E1DECF1F93182FE3DFCA
:107FE0001150E9F7F2DF1F91089580E0E8DFEE27F6
:047FF000FF270994CA
:027FFE00040479
:00000001FF
