:100000000C94A2000C94CA000C94CA000C94CA0070
:100010000C94CA000C94CA000C94CA000C94CA0038
:100020000C94CA000C94CA000C94CA000C94CA0028
:100030000C94CA000C94CA000C94CA000C94CA0018
:100040000C944E030C94CA000C94CA000C94CA0081
:100050000C94CA000C94CA000C94CA000C94CA00F8
:100060000C94CA000C94CA00000000002300260073
:10007000290000000000240027002A0000000000E2
:10008000250028002B0004040404040404040202D4
:100090000202020203030303030301020408102007
:1000A0004080010204081020010204081020000012
:1000B0000008000201000003040700000000000027
:1000C00000007E306D79335B5F707F7B771F4E3D24
:1000D0004F4700000000000000000000000000008A
:1000E000000000002200000000204E780000040103
:1000F00000007E306D79335B5F707F7B0000000015
:10010000000000771F4E3D4F475E373038000E002D
:10011000157E6773055B0F3E0000003B004E0078C4
:10012000000802771F0D3D6F475E17103800300042
:10013000151D6773055B0F1C000000000000000028
:100140000000B70511241FBECFEFD8E0DEBFCDBF42
:1001500011E0A0E0B1E0EAE0F1E102C005900D920B
:10016000A433B107D9F721E0A4E3B1E001C01D92A7
:10017000A83BB207E1F710E0C2EAD0E004C0219743
:10018000FE010E947C06C13AD107C9F70E9498037C
:100190000C9483080C940000833081F028F48130A3
:1001A00099F08230A9F008958730A9F08830C9F01D
:1001B0008430B1F4809180008F7D03C080918000F5
:1001C0008F7780938000089584B58F7784BD0895DC
:1001D00084B58F7DFBCF8091B0008F778093B00086
:1001E00008958091B0008F7DF9CF1F93CF93DF9357
:1001F000282F30E0F901E255FF4F8491F901E656CE
:10020000FF4FD491F901EA57FF4FC491CC23A9F0D5
:10021000162F81110E94CC00EC2FF0E0EE0FFF1F93
:10022000E458FF4FA591B4918FB7F894EC91111158
:1002300008C0D095DE23DC938FBFDF91CF911F9153
:100240000895DE2BF8CFCF93DF9390E0FC01E656C4
:10025000FF4F24918A579F4FFC0184918823D1F04E
:1002600090E0880F991FFC01EE58FF4FA591B491C3
:10027000FC01E458FF4FC591D49161110EC09FB7A6
:10028000F8948C91E22FE0958E238C932881E223C1
:10029000E8839FBFDF91CF9108958FB7F894EC91D9
:1002A000E22BEC938FBFF6CF8230910538F0880FA8
:1002B000991F880F991F05970197F1F70895CF931C
:1002C000DF939C01FC01E255FF4F8491F901E65652
:1002D000FF4FD491F901EA57FF4FC491CC2399F015
:1002E00081110E94CC00EC2FF0E0EE0FFF1FE859C7
:1002F000FF4FA591B491EC91ED2381E009F080E0EE
:10030000DF91CF91089581E0FBCF8F929F92BF92B2
:10031000CF92DF92EF92FF921F93CF93DF93CDB7EF
:10032000DEB7EDB6FEB6FC01C480D58096012F5F26
:100330003F4F4DB75EB7421B530B0FB6F8945EBFED
:100340000FBE4DBFEDB7FEB731964F01232B29F0FD
:10035000C114D10409F057C0108211E081EDC82EFC
:1003600087E0D82E80918001811708F405C11230F2
:1003700009F460C008F052C060916C018091700176
:10038000113009F454C0F401E10FF11D3197B08030
:10039000B7FE5AC0B0FE06C060916E018091780130
:1003A0000E94F500B1FE06C060916E018091790156
:1003B0000E94F500B2FE06C060916E0180917A0144
:1003C0000E94F500B3FE06C060916E0180917B0132
:1003D0000E94F500B4FE06C060916E0180917C0120
:1003E0000E94F500B5FE06C060916E0180917D010E
:1003F0000E94F500B6FE5FC060916E0180917E01A3
:100400000E94F50058C0FC0160817181A601C40101
:100410000E947408F401EC0DFD1D9ECF133079F09D
:1004200060916C0180917301143009F0ACCF0E948F
:10043000F500A9CF60916C0180917101F8CF6091B6
:100440006C0180917201F3CFEB2DF0E0EE53FF4F82
:10045000B490B6FE06C060916E01809178010E9452
:10046000F500B5FE06C060916E01809179010E9491
:10047000F500B4FE06C060916E0180917A010E9481
:10048000F500B3FE06C060916E0180917B010E9471
:10049000F500B2FE06C060916E0180917C010E9461
:1004A000F500B1FE06C060916E0180917D010E9451
:1004B000F500B0FCA1CF809181019091820101965D
:1004C0000E94540160916F01809178010E94F500B3
:1004D00060916F01809179010E94F50060916F0138
:1004E00080917A010E94F50060916F0180917B01FB
:1004F0000E94F50060916F0180917C010E94F500DF
:1005000060916F0180917D010E94F50060916F0103
:1005100080917E010E94F50060916F0180917F01C2
:100520000E94F5001230F1F090F460916D0180911D
:1005300070011130A1F080918101909182019601AA
:10054000281B390BC9010E9454011F5F0BCF1330C8
:1005500071F060916D0180917301143061F70E9418
:10056000F500E9CF60916D0180917101F8CF609144
:100570006D0180917201F3CF809175018F3F21F45D
:10058000809174018F3F49F18091810190918201A6
:1005900001960E94540160916D01809175010E9445
:1005A000F50060916F01809177010E94F5006091E4
:1005B0006D01809174010E94F50060916F0180913E
:1005C00076010E94F500209181013091820181ED38
:1005D00097E0821B930B0E9454010FB6F894FEBE65
:1005E0000FBEEDBEDF91CF911F91FF90EF90DF9096
:1005F000CF90BF909F908F900895FC018081918152
:10060000009711F00C941E070895EF92FF920F933C
:100610001F93CF93DF93EC017B01198218821B8219
:100620001A821D821C82FB0101900020E9F731979C
:100630008F01061B170BB8016F5F7F4F90E080E0C2
:100640000E94A7070097B9F0998388831B830A83C8
:100650002C813D81232B11F4FC0110821D830C831E
:10066000B70188819981DF91CF911F910F91FF9000
:10067000EF900C946D0888819981009711F00E9489
:100680001E07198218821D821C821B821A82DF912A
:10069000CF911F910F91FF90EF9008951F920F92AD
:1006A0000FB60F9211242F933F938F939F93AF9385
:1006B000BF938091670190916801A0916901B09109
:1006C0006A013091660123E0230F2D3758F501961A
:1006D000A11DB11D2093660180936701909368016D
:1006E000A0936901B0936A018091620190916301C6
:1006F000A0916401B09165010196A11DB11D809387
:10070000620190936301A0936401B0936501BF916E
:10071000AF919F918F913F912F910F900FBE0F90AE
:100720001F90189526E8230F0296A11DB11DD2CF68
:10073000CF93DF9300D000D000D0CDB7DEB7789450
:1007400084B5826084BD84B5816084BD85B58260D6
:1007500085BD85B5816085BD80916E008160809387
:100760006E001092810080918100826080938100F0
:100770008091810081608093810080918000816000
:10078000809380008091B10084608093B10080915B
:10079000B00081608093B00080917A008460809383
:1007A0007A0080917A00826080937A0080917A004A
:1007B000816080937A0080917A00806880937A00CB
:1007C0001092C10094E0909380011EE0109370019C
:1007D000B3E0B093710190937201A5E0A09373010F
:1007E0008FEF8093740180937501F6E0F0937801A8
:1007F000E7E0E093790178E070937A0169E0609333
:100800007B015AE050937C014BE040937D013CE03A
:1008100030937E012DE020937F01809376018093B9
:10082000770110926B0110926C0181E080936D0151
:1008300080936E0110926F0110938301B093840135
:1008400090938501A0938601F0938701E09388013E
:100850007093890160938A0150938B0140938C01BE
:1008600030938D0120938E0110E080918001181744
:1008700098F4812F90E09C0125593E4F79016091B9
:100880006D01F901808D0E94F50061E0F701808D16
:100890000E9423011F5FE9CF0BE611E023E7E22E60
:1008A00021E0F22E60916F01F801848D0E94F50025
:1008B00061E0F801848D0E9423010F5F1F4FE01655
:1008C000F10681F7809175018F3FA1F060916D0174
:1008D0000E94F50061E0809175010E942301609102
:1008E0006F01809177010E94F50061E080917701AE
:1008F0000E942301809174018F3FA1F060916D01EE
:100900000E94F50061E0809174010E9423016091D2
:100910006F01809176010E94F50061E0809176017F
:100920000E94230180ED97E09093820180938101E2
:1009300060E082E00E94230160E08FE00E942301DA
:1009400060E080E10E942301FF24F39480E0C82E40
:1009500080E0D82E98E0A92EB12C82E090E00E9491
:100960005F018823C9F0009160011091610182E06C
:1009700090E00E945F018F2590915B0189130CC06C
:1009800082E090E00E945F0180935B010F5F1F4F48
:10099000109361010093600182E090E00E945F018A
:1009A000811106C082E090E00E945F0180935B01AC
:1009B0008FE090E00E945F018823C1F08FE090E01B
:1009C0000E945F018F2590915C0189130FC08FE019
:1009D00090E00E945F0180935C0180915D019091A5
:1009E0005E01019690935E0180935D018FE090E03F
:1009F0000E945F01811106C08FE090E00E945F01BC
:100A000080935C0180E190E00E945F018823C1F047
:100A100080E190E00E945F018F2590915F01891332
:100A20000FC080E190E00E945F0180935F018091A0
:100A30005D0190915E01019690935E0180935D014E
:100A400080E190E00E945F01811106C080E190E0AA
:100A50000E945F0180935F0100916001109161012C
:100A600066E071E00115110529F00130110581F5ED
:100A70006BE071E0CE0101960E940503CE01019664
:100A80000E948501CE0101960E94FD026FE171E096
:100A90000530110571F5CE0101960E940503CE01C6
:100AA00001960E948501CE0101960E94FD0280916F
:100AB00060019091610197FF04C0B0926101A09222
:100AC0006001C114D10409F448CF0E94000045CF51
:100AD00002301105A1F460E171E0CE0101960E949F
:100AE0000503CE0101960E948501CE0101960E9468
:100AF000FD0264E271E00630110569F211C00330B5
:100B00001105D1F465E171E0CE0101960E94050363
:100B1000CE0101960E948501CE0101960E94FD0240
:100B200069E271E00730110509F4B5CF083011050D
:100B3000A9F46EE271E0AFCF0430110509F0A6CF41
:100B40006AE171E0CE0101960E940503CE01019693
:100B50000E948501CE0101960E94FD020930110517
:100B60000CF4A5CF1092610110926001A0CF0F93F9
:100B70001F931092B30110923E0110923F01109208
:100B800040011092410110924201109243011092D3
:100B900044011092450110924601109247011092B3
:100BA00048011092490110924B0110924A01109293
:100BB0004C0181E090E090934E0180934D011092A2
:100BC000580110925701209138013091390121309C
:100BD000310511F090E080E0909339018093380165
:100BE0008AE391E04DEC5CEC6CE47EE340934F01D2
:100BF0005093500160935101709352014FB7F89494
:100C000000916701109168012091690130916A019A
:100C10004FBF40913E0150913F0160914001709162
:100C20004101400F511F621F731F40933A015093BF
:100C30003B0160933C0170933D0110924C01209167
:100C4000380130913901232B91F4209136013091F4
:100C50003701232B79F490933501809334019093DD
:100C600037018093360110925A01109259011F9159
:100C70000F910895E0913401F091350190A3878F91
:100C80009093350180933401EECF2F923F924F9293
:100C90005F926F927F928F929F92AF92BF92CF920C
:100CA000DF92EF92FF920F931F93CF93DF93CDB715
:100CB000DEB7CA1BDB0B0FB6F894DEBF0FBECDBF8D
:100CC00009942A88398848885F846E847D848C845E
:100CD0009B84AA84B984C884DF80EE80FD800C8167
:100CE0001B81AA81B981CE0FD11D0FB6F894DEBF4A
:100CF0000FBECDBFED010895EE0FFF1F0590F491DB
:100D0000E02D09940F931F93CF93DF9382309105C9
:100D100010F482E090E0E091B601F091B70130E08C
:100D200020E0B0E0A0E0309799F42115310509F4F6
:100D30004AC0281B390B24303105D8F58A819B81A4
:100D40006115710589F1FB0193838283FE0111C056
:100D5000408151810281138148175907E0F04817FB
:100D6000590799F4109761F012960C931297139605
:100D70001C933296CF01DF91CF911F910F9108956F
:100D80000093B6011093B701F4CF2115310551F04E
:100D90004217530738F0A901DB019A01BD01DF01B9
:100DA000F801C1CFEF01F9CF9093B7018093B6015D
:100DB000CDCFFE01E20FF31F8193919322503109B1
:100DC00039832883D7CF2091B4013091B501232BEB
:100DD00041F420910201309103013093B501209339
:100DE000B40120910001309101012115310541F438
:100DF0002DB73EB74091040150910501241B350BDE
:100E0000E091B401F091B501E217F307A0F42E1BB5
:100E10003F0B2817390778F0AC014E5F5F4F24175E
:100E2000350748F04E0F5F1F5093B5014093B40152
:100E3000819391939FCFF0E0E0E09CCFCF93DF933D
:100E40000097E9F0FC01329713821282A091B6015B
:100E5000B091B701ED0130E020E01097A1F42081BE
:100E60003181820F931F2091B4013091B501281771
:100E7000390709F061C0F093B501E093B401DF9147
:100E8000CF910895EA01CE17DF07E8F54A815B812B
:100E90009E0141155105B1F7E901FB83EA834991B0
:100EA0005991C40FD51FEC17FD0761F48081918122
:100EB0000296840F951FE90199838883828193812B
:100EC0009B838A83F0E0E0E012968D919C911397CA
:100ED0000097B9F52D913C911197CD010296820FA3
:100EE000931F2091B4013091B5012817390739F6C5
:100EF000309751F51092B7011092B601B093B50139
:100F0000A093B401BCCFD383C28340815181840FAD
:100F1000951FC817D90761F44E5F5F4F888199818B
:100F2000480F591F518340838A819B819383828319
:100F30002115310509F0B0CFF093B701E093B60168
:100F40009ECFFD01DC01C0CF13821282D7CFB0E06B
:100F5000A0E0EDEAF7E00C9447068C01009751F40D
:100F6000CB010E9482068C01C801CDB7DEB7E0E15B
:100F70000C946306FC01E60FF71F9C012250310917
:100F8000E217F30708F49DC0D901CD91DC911197C8
:100F9000C617D70798F0C530D10530F3CE010497B6
:100FA0008617970708F3C61BD70B2297C193D193D7
:100FB0006D937C93CF010E941E07D6CF5B01AC1AC4
:100FC000BD0A4C018C0E9D1EA091B601B091B701D7
:100FD000512C412CF12CE12C109731F58091B4016A
:100FE0009091B5018815990509F05CC04616570621
:100FF00008F058C08091000190910101009741F4E0
:101000008DB79EB74091040150910501841B950B4B
:10101000E817F90708F055C0F093B501E093B40163
:10102000F90171836083A0CF8D919C9111971296E5
:101030006C90129713967C901397A815B90559F5E3
:101040006C0142E0C40ED11CCA14DB0420F1AC01D7
:101050004A195B09DA011296159780F06282738251
:1010600051834083D9016D937C93E114F10471F0B5
:10107000D7011396FC93EE93129776CF22968C0F9E
:101080009D1FF90191838083F301EFCFF093B701A6
:10109000E093B60169CF4816590608F42C017D018A
:1010A000D3019ACFCB010E9482067C01009749F0C0
:1010B000AE01B8010E946408C8010E941E078701A2
:1010C00053CF10E000E050CFFB01DC0102C00190E3
:1010D0000D9241505040D8F70895FB01DC0101907A
:1010E0000D920020E1F70895FB01DC0141505040D2
:1010F00048F001900D920020C9F701C01D924150A7
:0A1100005040E0F70895F894FFCF87
:10110A000000B80180004162633100454630320078
:10111A004162303300303030330030303034003008
:10112A003030350030303036003030303700303033
:04113A003038000049
:00000001FF
