:020000040000FA
:100000000C94A2000C94CA000C94CA000C94CA0070
:100010000C94CA000C94CA000C94CA000C94CA0038
:100020000C94CA000C94CA000C94CA000C94CA0028
:100030000C94CA000C94CA000C94CA000C94CA0018
:100040000C94B7050C94CA000C94CA000C94CA0016
:100050000C94CA000C94CA000C94CA000C94CA00F8
:100060000C94CA000C94CA00000000002300260073
:10007000290000000000240027002A0000000000E2
:10008000250028002B0004040404040404040202D4
:100090000202020203030303030301020408102007
:1000A0004080010204081020010204081020000012
:1000B0000008000201000003040700000000000027
:1000C00000007E306D79335B5F707F7B771F4E3D24
:1000D0004F4700000000000000000000000000008A
:1000E000000000002200000000204E780000040103
:1000F00000007E306D79335B5F707F7B0000000015
:10010000000000771F4E3D4F475E373038000E002D
:10011000157E6773055B0F3E0000003B004E0078C4
:10012000000802771F0D3D6F475E17103800300042
:10013000151D6773055B0F1C000000000000000028
:100140000000B40A11241FBECFEFD8E0DEBFCDBF40
:1001500011E0A0E0B1E0E4E1F2E202C005900D920E
:10016000AC33B107D9F721E0ACE3B1E001C01D9297
:10017000A43DB207E1F710E0C2EAD0E004C0219745
:10018000FE010E94600CC13AD107C9F70E94010626
:100190000C9408110C940000833081F028F4813015
:1001A00099F08230A9F008958730A9F08830C9F01D
:1001B0008430B1F4809180008F7D03C080918000F5
:1001C0008F7780938000089584B58F7784BD0895DC
:1001D00084B58F7DFBCF8091B0008F778093B00086
:1001E00008958091B0008F7DF9CF1F93CF93DF9357
:1001F000282F30E0F901E255FF4F8491F901E656CE
:10020000FF4FD491F901EA57FF4FC491CC23A9F0D5
:10021000162F81110E94CC00EC2FF0E0EE0FFF1F93
:10022000E458FF4FA591B4918FB7F894EC91111158
:1002300008C0D095DE23DC938FBFDF91CF911F9153
:100240000895DE2BF8CFCF93DF9390E0FC01E656C4
:10025000FF4F24918A579F4FFC0184918823D1F04E
:1002600090E0880F991FFC01EE58FF4FA591B491C3
:10027000FC01E458FF4FC591D49161110EC09FB7A6
:10028000F8948C91E22FE0958E238C932881E223C1
:10029000E8839FBFDF91CF9108958FB7F894EC91D9
:1002A000E22BEC938FBFF6CF8E50806480937C005E
:1002B00080917A00806480937A0080917A0086FD34
:1002C000FCCF80917800909179000895823091055B
:1002D00038F0880F991F880F991F05970197F1F73C
:1002E00008956F927F929F92BF92CF92DF92EF928A
:1002F000FF921F93CF93DF937C01962E11E0C62EC1
:10030000D12C81ED682E87E0782E809177018117BE
:1003100008F40DC1C12FD0E0123009F455C008F027
:1003200047C06091630180916701113009F449C0B1
:10033000F701EC0FFD1F3197B080B7FE4FC0B0FE44
:1003400006C06091650180916F010E94F500B1FEC9
:1003500006C060916501809170010E94F500B2FEB7
:1003600006C060916501809171010E94F500B3FEA5
:1003700006C060916501809172010E94F500B4FE93
:1003800006C060916501809173010E94F500B5FE81
:1003900006C060916501809174010E94F500B6FE6F
:1003A00054C060916501809175010E94F5004DC0B7
:1003B000133079F06091630180916A01143009F083
:1003C000B7CF0E94F500B4CF6091630180916801BE
:1003D000F8CF6091630180916901F3CFEB2DF0E0DC
:1003E000EE53FF4FB490B6FE06C060916501809158
:1003F0006F010E94F500B5FE06C060916501809115
:1004000070010E94F500B4FE06C060916501809104
:1004100071010E94F500B3FE06C0609165018091F4
:1004200072010E94F500B2FE06C0609165018091E4
:1004300073010E94F500B1FE06C0609165018091D4
:1004400074010E94F500B0FCACCF2197C60102C038
:1004500095958795CA95E2F780FF08C0153030F46E
:1004600060916501809176010E94F500809178018C
:100470009091790101960E946601609166018091D8
:100480006F010E94F50060916601809170010E94E9
:10049000F50060916601809171010E94F500609104
:1004A0006601809172010E94F50060916601809161
:1004B00073010E94F50060916601809174010E94B1
:1004C000F50060916601809175010E94F5006091D0
:1004D0006601809176010E94F5001230F1F090F4EF
:1004E00060916401809167011130A1F080917801E1
:1004F000909179019301281B390BC9010E94660173
:100500001F5F03CF133071F06091640180916A0125
:10051000143061F70E94F500E9CF60916401809189
:100520006801F8CF6091640180916901F3CF8091F7
:100530006C018F3F29F490916B019F3F09F44EC0ED
:1005400094FE0AC0609163010E94F500609165010C
:1005500080916E010E94F50095FE0CC060916301D0
:1005600080916B010E94F5006091650180916D01A1
:100570000E94F500809178019091790101960E9486
:1005800066016091640180916C010E94F5006091A8
:10059000660180916E010E94F50060916401809176
:1005A0006B010E94F5006091660180916D010E94CF
:1005B000F500209178013091790181ED97E0821B5F
:1005C000930BDF91CF911F91FF90EF90DF90CF9031
:1005D000BF909F907F906F900C946601DF91CF91B8
:1005E0001F91FF90EF90DF90CF90BF909F907F90F2
:1005F0006F9008953FB7F89480915E0190915F01EC
:10060000A0916001B091610126B5A89B05C02F3F64
:1006100019F00196A11DB11D3FBFBA2FA92F982F28
:100620008827BC01CD01620F711D811D911D42E023
:10063000660F771F881F991F4A95D1F708950F936A
:100640001F938091C2019091C3018130910511F1F6
:1006500030F00297F9F000E010E098010EC00E941F
:10066000FA020091B7011091B8012091B9013091BF
:10067000BA01060F171F281F391F0093AF011093EF
:10068000B0012093B1013093B2011092C1011F91CA
:100690000F9108952FB7F8948091AB019091AC0120
:1006A000A091AD01B091AE012FBF0091B3011091A7
:1006B000B4012091B5013091B601080F191F2A1F0E
:1006C0003B1FDBCFCF92DF92EF92FF920F931F93EE
:1006D0006091B3017091B4018091B5019091B60120
:1006E0002FB7F894C090AB01D090AC01E090AD0171
:1006F000F090AE012FBF2091C2013091C3012115AE
:10070000310539F02330310528F160E070E0CB018C
:100710001AC0C090B701D090B801E090B901F09034
:10072000BA010E94FA020091AF011091B00120912C
:10073000B1013091B201C01AD10AE20AF30A6C0D7C
:100740007D1D8E1D9F1D1F910F91FF90EF90DF90DB
:10075000CF9008956C0D7D1D8E1D9F1DC090AF0123
:10076000D090B001E090B101F090B2016C197D0918
:100770008E099F09E8CFCF93DF939C01FC01E255DE
:10078000FF4F8491F901E656FF4FD491F901EA57E2
:10079000FF4FC491CC2379F081110E94CC00EC2F43
:1007A000F0E0EE0FFF1FE859FF4FA591B491EC91D7
:1007B000ED2381E009F480E0DF91CF910895CF939C
:1007C000DF93C0915701D091580182E10E945401FA
:1007D000C81BD90BD7FF03C0D195C195D10981E0C2
:1007E00040914201509143014C175D070CF080E0AD
:1007F000DF91CF91089581E10E94540120914C0135
:1008000030914D01281739075CF481E10E945401B1
:1008100021E040914E0150914F01841795070CF053
:1008200020E0822F0895CF92DF92EF92FF922091E5
:10083000C2013091C3012130310569F180F02230CD
:10084000310549F12091CC013091CD01232B09F0E4
:1008500040E0842FFF90EF90DF90CF9008950E94AA
:1008600062036B017C0120E034E244E759E46091CB
:10087000C4017091C5018091C6019091C7010E9489
:10088000260B0E94310C41E0C616D706E806F90691
:10089000C8F640E0D7CF0E9462036B017C0120E0E4
:1008A00030E04AE754E4E3CF0F931F93CF93DF93F5
:1008B000EC0188819981009759F02A813B812617A4
:1008C000370730F081E0DF91CF911F910F910895AC
:1008D0008B016F5F7F4F0E948B0D009759F09983BA
:1008E00088831B830A832C813D81232B59F7FC01CC
:1008F0001082E8CF80E0E7CFCF93DF93EC018881CF
:100900009981009711F00E94020D198218821D82B0
:100910001C821B821A82DF91CF910895EF92FF9281
:100920000F931F93CF93DF93EC017B018A01BA01F0
:100930000E94540481110BC0CE010E947C04CE01A0
:10094000DF91CF911F910F91FF90EF9008951D833C
:100950000C83B701888199810E94510EF0CFFC0170
:10096000118210821382128215821482FB0101907F
:100970000020E9F73197AF01461B570B0C948E040A
:10098000FC0180819181009711F00C94020D089573
:10099000AF92BF92CF92DF92EF92FF920F931F938D
:1009A000CF93DF93CDB7DEB728970FB6F894DEBFAD
:1009B0000FBECDBF8C01CDB6DEB6FC018481958122
:1009C00004970CF04AC01A8219821C821B821E8274
:1009D0001D8280E18F831886BE01695F7F4FFB0116
:1009E00001900020E9F73197AF01461B570BCE016C
:1009F00001960E948E04F801A080B180A114B10478
:100A000009F45DC0E480F580E114F104B9F08D8152
:100A10009E81E80EF91EB701CE0101960E94540492
:100A2000882309F44CC029813A818D819E81B501CA
:100A3000820F931F0E94510EFE82ED8269817A819E
:100A40006115710509F440C04D815E81C8010E94A5
:100A50008E04CE0101960E94C004F801E480F58066
:100A6000C70101962DB73EB7281B390B0FB6F89476
:100A70003EBF0FBE2DBFEDB7FEB731965F01892B8C
:100A800021F0E114F10421F5108260E0C5010E941B
:100A900071010FB6F894DEBE0FBECDBE28960FB61C
:100AA000F894DEBF0FBECDBFDF91CF911F910F91A4
:100AB000FF90EF90DF90CF90BF90AF900895CE0160
:100AC00001960E947C04BACFC8010E947C04C1CF69
:100AD000F80160817181A701C5010E94580EF501DE
:100AE000EE0DFF1DD1CF0F931F93CF93DF9300D057
:100AF00000D01F92CDB7DEB7809153018F938091C4
:100B000052018F9386E091E09F938F938E010F5F48
:100B10001F4F1F930F930E94670E60E0C8010E9451
:100B200071010F900F900F900F900F900F900F90FA
:100B30000F900F900F900F90DF91CF911F910F9119
:100B400008951F93CF93DF93EC01162F0E94E40BBF
:100B5000181739F0612FCE01DF91CF911F910C94BE
:100B6000EC0BDF91CF911F9108950C94E40B1F9231
:100B70000F920FB60F9211242F933F938F939F9351
:100B8000AF93BF938091AB019091AC01A091AD0167
:100B9000B091AE0130915D0123E0230F2D3758F560
:100BA0000196A11DB11D20935D018093AB0190932F
:100BB000AC01A093AD01B093AE0180915E01909124
:100BC0005F01A0916001B09161010196A11DB11D6D
:100BD00080935E0190935F01A0936001B0936101E7
:100BE000BF91AF919F918F913F912F910F900FBE29
:100BF0000F901F90189526E8230F0296A11DB11D96
:100C0000D2CFCF93DF9300D000D000D0CDB7DEB7E6
:100C1000789484B5826084BD84B5816084BD85B5D7
:100C2000826085BD85B5816085BD80916E008160E3
:100C300080936E0010928100809181008260809389
:100C4000810080918100816080938100809180008B
:100C50008160809380008091B10084608093B100B6
:100C60008091B00081608093B00080917A008460B0
:100C700080937A0080917A00826080937A008091DC
:100C80007A00816080937A0080917A0080688093F6
:100C90007A001092C10094E09093770112E01093D3
:100CA0006701B3E0B093680190936901A5E0A09358
:100CB0006A018FEF80936B0180936C01F6E0F093F3
:100CC0006F01E7E0E093700178E07093710169E0F3
:100CD000609372015AE0509373014BE040937401AA
:100CE0003CE0309375012DE02093760180936D01F7
:100CF00080936E01109262011092630181E08093F3
:100D00006401809365011092660110937A01B0939B
:100D10007B0190937C01A0937D01F0937E01E09391
:100D20007F01709380016093810150938201409311
:100D30008301309384012093850110E08091770135
:100D4000181798F4812F90E09C012E593E4F79019D
:100D500060916401F901808D0E94F50061E0F70166
:100D6000808D0E9423011F5FE9CF02E611E08AE631
:100D7000E82E81E0F82E60916601F801848D0E94D2
:100D8000F50061E0F801848D0E9423010F5F1F4F81
:100D9000E016F10681F780916C018F3FA1F0609120
:100DA00064010E94F50061E080916C010E942301C2
:100DB0006091660180916E010E94F50061E0809172
:100DC0006E010E94230180916B018F3FA1F0609121
:100DD00064010E94F50061E080916B010E94230193
:100DE0006091660180916D010E94F50061E0809143
:100DF0006D010E94230180ED97E09093790180932B
:100E0000780160E08EE00E94230160E08FE00E94A4
:100E1000230160E080E10E94230160E081E10E9403
:100E2000230160E082E10E94230160E083E10E94EF
:100E3000230161E080E00E94230161E081E00E94E3
:100E4000230190E080E00E94B50590E0880F991F93
:100E500090934F0180934E0181E090E00E94B50590
:100E600090E0880F991F90934D0180934C0182E090
:100E700090E00E94B50590E0880F991F90934B0178
:100E800080934A0183E090E00E94B50590E0880FCE
:100E9000991F909349018093480184E090E00E945B
:100EA000B50590E0880F991F9093580180935701E2
:100EB00085E090E00E94B50590E090935601809304
:100EC000550186E090E00E94B50590E090934701BF
:100ED0008093460187E090E00E94B50590E09093F2
:100EE00045018093440188E090E00E94B50590E0C0
:100EF0009093430180934201BB24B394A0E0EA2E77
:100F0000A0E0FA2EAA24A394B9E0CB2ED12C8EE037
:100F100090E00E94BB03882309F499C08EE090E022
:100F20000E94BB038B2590915001891390C08EE0E5
:100F300090E00E94BB0380935001009159011091F1
:100F40005A010F5F1F4F10935A01009359010E94DD
:100F50001F030115110509F0AEC180915201909156
:100F6000530190934301809342010530110509F02C
:100F7000C1C1809152019091530190934901809396
:100F800048018091570190915801909353018093AB
:100F9000520160914E0170914F0177FF02C06F5F67
:100FA0007F4F7595679590E080E00E94A105609164
:100FB0004C0170914D0177FF02C06F5F7F4F7595B7
:100FC000679581E090E00E94A10560914A017091CF
:100FD0004B0177FF02C06F5F7F4F7595679582E089
:100FE00090E00E94A105609148017091490177FF4E
:100FF00002C06F5F7F4F7595679583E090E00E9418
:10100000A105609157017091580177FF02C06F5F91
:101010007F4F7595679584E090E00E94A1056091EF
:10102000550185E090E00E94A1056091460186E0AF
:1010300090E00E94A1056091440187E090E00E9449
:10104000A1056091420188E090E00E94A1058EE038
:1010500090E00E94BB03811106C08EE090E00E94E8
:10106000BB03809350018FE090E00E94BB03882374
:10107000C1F08FE090E00E94BB038B25909151015D
:1010800089130FC08FE090E00E94BB038093510151
:101090008091520190915301019690935301809356
:1010A00052018FE090E00E94BB03811106C08FE0E7
:1010B00090E00E94BB038093510180E190E00E9488
:1010C000BB038823C1F080E190E00E94BB038B2525
:1010D0009091540189130FC080E190E00E94BB03FE
:1010E0008093540180915201909153010197909304
:1010F00053018093520180E190E00E94BB03811173
:1011000006C080E190E00E94BB038093540180916F
:101110005C01882309F4DBC18091590190915A0147
:101120006BE071E0009709F44DC1019749F40E940A
:10113000130460E171E0882309F444C10E9473053F
:101140008091590190915A01029739F40E94130439
:10115000882309F444C10E9473058091590190913C
:101160005A01039739F40E941304882309F446C1F5
:101170000E9473058091590190915A01049739F4A6
:101180000E941304882309F448C10E9473058091CA
:10119000590190915A01059739F40E94130488234C
:1011A00009F44AC10E9473058091590190915A0136
:1011B000069739F40E941304882309F44CC10E9455
:1011C00073058091590190915A01079739F40E9453
:1011D0001304882309F44EC10E94730580915901BC
:1011E00090915A01089739F40E941304882309F456
:1011F00050C10E9473058091590190915A0109973D
:1012000039F40E941304882309F452C10E94730523
:101210008091590190915A010A9724F010925A0135
:10122000109259018091590190915A0197FF04C081
:10123000D0925A01C09259018EE090E00E94BB0307
:101240008823D9F08FE090E00E94BB038823A9F0A7
:1012500080E190E00E94BB03882379F080915B01DC
:1012600081110BC080915C018B2580935C01A09261
:101270005B0110925A01109259018EE090E00E9499
:10128000BB03811111C08FE090E00E94BB0381116C
:101290000BC080E190E00E94BB03811105C08091EA
:1012A0005B01811110925B01E114F10409F42FCE6E
:1012B0000E9400002CCE0130110549F480914E01AE
:1012C00090914F0190935301809352014ECE023082
:1012D000110501F5809152019091530190934F01B6
:1012E00080934E0180914C0190914D019093530158
:1012F000809352010630110501F5809152019091C1
:10130000530190935801809357018091550190911A
:1013100056013BCE0330110501F5809152019091A9
:10132000530190934D0180934C0180914A0190911B
:101330004B0190935301809352010730110591F5B1
:1013400080915201909153019093560180935501E1
:10135000809146019091470118CE0430110509F0A3
:1013600004CE809152019091530190934B01809350
:101370004A018091480190914901909353018093D3
:1013800052010930110509F004CE8091520190916B
:1013900053019093450180934401809142019091C3
:1013A0004301F3CD0830110561F78091520190910E
:1013B000530190934701809346018091440190919D
:1013C0004501E3CDCE0101960E94AF04CE01019606
:1013D0000E94C804CE0101960E94C004B1CE64E10F
:1013E00071E0CE0101960E94AF04CE0101960E94E9
:1013F000C804CE0101960E94C004AFCE68E171E03E
:10140000CE0101960E94AF04CE0101960E94C8044D
:10141000CE0101960E94C004ADCE6CE171E0CE0118
:1014200001960E94AF04CE0101960E94C804CE012D
:1014300001960E94C004ABCE60E271E0CE0101963D
:101440000E94AF04CE0101960E94C804CE0101960D
:101450000E94C004A9CE65E271E0CE0101960E940F
:10146000AF04CE0101960E94C804CE0101960E94ED
:10147000C004A7CE69E271E0CE0101960E94AF04DC
:10148000CE0101960E94C804CE0101960E94C004BC
:10149000A5CE6DE271E0CE0101960E94AF04CE01AF
:1014A00001960E94C804CE0101960E94C004A3CEFA
:1014B00062E371E0CE0101960E94AF04CE01019675
:1014C0000E94C804CE0101960E94C004A1CE82E110
:1014D0000E94540100915701109158018017910703
:1014E0009CF40E94DF03882379F00E94FB03882389
:1014F00059F083E10E945401209155013091560129
:1015000061E0821793070CF060E080E00E94F50034
:1015100082E10E945401081719079CF40E94DF031E
:10152000882379F00E94FB03882359F083E10E940D
:101530005401209155013091560161E082179307C3
:101540000CF060E081E00E94F50067E371E0CE01FD
:1015500001960E94AF04CE0101960E94C804CE01FC
:1015600001960E94C00468CE0F931F93CF93DF9320
:101570001092AA011092B3011092B4011092B50119
:101580001092B6011092B7011092B8011092B901F1
:101590001092BA011092BB011092BC011092BD01D1
:1015A0001092BE011092C0011092BF011092C101B1
:1015B0001092CD011092CC01009140011091410197
:1015C00081E090E00130110511F090E080E090930F
:1015D000410180934001CFEAD1E082E090E0909316
:1015E000C3018093C20180E090E0A0E8BFE3809354
:1015F000C4019093C501A093C601B093C7010E9496
:101600001F030130110591F080913E0190913F013F
:10161000892B89F4D0933D01C0933C01D0933F01C5
:10162000C0933E011092CF011092CE01DF91CF9175
:101630001F910F910895E0913C01F0913D01D0A3DD
:10164000C78FD0933D01C0933C01ECCF0E94390B72
:101650000C94AA0B0E949C0B38F00E94A30B20F064
:10166000952311F00C94930B0C94990B11240C946A
:10167000DE0B0E94BB0B70F3959FC1F3950F50E0FA
:10168000551F629FF001729FBB27F00DB11D639F34
:10169000AA27F00DB11DAA1F649F6627B00DA11DDA
:1016A000661F829F2227B00DA11D621F739FB00D80
:1016B000A11D621F839FA00D611D221F749F3327F0
:1016C000A00D611D231F849F600D211D822F762F89
:1016D0006A2F11249F5750409AF0F1F088234AF066
:1016E000EE0FFF1FBB1F661F771F881F91505040D2
:1016F000A9F79E3F510580F00C94930B0C94DE0BE0
:101700005F3FE4F3983ED4F3869577956795B79558
:10171000F795E7959F5FC1F7FE2B880F911D969572
:10172000879597F9089597F99F6780E870E060E0E2
:1017300008959FEF80EC089500240A94161617066A
:1017400018060906089500240A94121613061406B2
:1017500005060895092E0394000C11F4882352F015
:10176000BB0F40F4BF2B11F460FF04C06F5F7F4FCD
:101770008F4F9F4F089557FD9058440F551F59F0B4
:101780005F3F71F04795880F97FB991F61F09F3F6E
:1017900079F087950895121613061406551FF2CF97
:1017A0004695F1DF08C0161617061806991FF1CFE7
:1017B00086957105610508940895E894BB2766270E
:1017C0007727CB0197F90895F999FECF92BD81BD96
:1017D000F89A992780B50895262FF999FECF1FBA58
:1017E00092BD81BD20BD0FB6F894FA9AF99A0FBE4A
:1017F000019608952F923F924F925F926F927F923F
:101800008F929F92AF92BF92CF92DF92EF92FF9210
:101810000F931F93CF93DF93CDB7DEB7CA1BDB0BBC
:101820000FB6F894DEBF0FBECDBF09942A88398861
:1018300048885F846E847D848C849B84AA84B98468
:10184000C884DF80EE80FD800C811B81AA81B98174
:10185000CE0FD11D0FB6F894DEBF0FBECDBFED0188
:1018600008950E94C30B88F09F5798F0B92F9927CD
:10187000B751B0F0E1F0660F771F881F991F1AF07B
:10188000BA95C9F714C0B13091F00E94DD0BB1E0F8
:1018900008950C94DD0B672F782F8827B85F39F0F7
:1018A000B93FCCF3869577956795B395D9F73EF414
:1018B00090958095709561957F4F8F4F9F4F0895BC
:1018C000EE0FFF1F0590F491E02D09940F931F93E5
:1018D000CF93DF938230910510F482E090E0E091A5
:1018E000D201F091D30130E020E0B0E0A0E03097E9
:1018F00099F42115310509F44AC0281B390B24300D
:101900003105D8F58A819B816115710589F1FB014B
:1019100093838283FE0111C0408151810281138132
:1019200048175907E0F04817590799F4109761F0E4
:1019300012960C93129713961C933296CF01DF9157
:10194000CF911F910F9108950093D2011093D3016D
:10195000F4CF2115310551F04217530738F0A90192
:10196000DB019A01BD01DF01F801C1CFEF01F9CF21
:101970009093D3018093D201CDCFFE01E20FF31FEC
:10198000819391932250310939832883D7CF2091B5
:10199000D0013091D101232B41F4209102013091EB
:1019A00003013093D1012093D001209100013091A7
:1019B00001012115310541F42DB73EB740910401D5
:1019C00050910501241B350BE091D001F091D1011C
:1019D000E217F307A0F42E1B3F0B2817390778F006
:1019E000AC014E5F5F4F2417350748F04E0F5F1F65
:1019F0005093D1014093D001819391939FCFF0E018
:101A0000E0E09CCFCF93DF930097E9F0FC013297A1
:101A100013821282A091D201B091D301ED0130E086
:101A200020E01097A1F420813181820F931F209133
:101A3000D0013091D1012817390709F061C0F09326
:101A4000D101E093D001DF91CF910895EA01CE1743
:101A5000DF07E8F54A815B819E0141155105B1F729
:101A6000E901FB83EA8349915991C40FD51FEC1713
:101A7000FD0761F4808191810296840F951FE90131
:101A800099838883828193819B838A83F0E0E0E05D
:101A900012968D919C9113970097B9F52D913C91D9
:101AA0001197CD010296820F931F2091D0013091A2
:101AB000D1012817390739F6309751F51092D30123
:101AC0001092D201B093D101A093D001BCCFD383A7
:101AD000C28340815181840F951FC817D90761F4D3
:101AE0004E5F5F4F88819981480F591F5183408312
:101AF0008A819B81938382832115310509F0B0CFC0
:101B0000F093D301E093D2019ECFFD01DC01C0CF61
:101B100013821282D7CFB0E0A0E0E1E9FDE00C949F
:101B2000FC0B8C01009751F4CB010E94660C8C01D8
:101B3000C801CDB7DEB7E0E10C94180CFC01E60F4C
:101B4000F71F9C0122503109E217F30708F49DC0EA
:101B5000D901CD91DC911197C617D70798F0C53000
:101B6000D10530F3CE0104978617970708F3C61BFB
:101B7000D70B2297C193D1936D937C93CF010E9491
:101B8000020DD6CF5B01AC1ABD0A4C018C0E9D1E16
:101B9000A091D201B091D301512C412CF12CE12C18
:101BA000109731F58091D0019091D1018815990558
:101BB00009F05CC04616570608F058C08091000135
:101BC00090910101009741F48DB79EB740910401B7
:101BD00050910501841B950BE817F90708F055C0D3
:101BE000F093D101E093D001F90171836083A0CF1C
:101BF0008D919C91119712966C90129713967C90F0
:101C00001397A815B90559F56C0142E0C40ED11C13
:101C1000CA14DB0420F1AC014A195B09DA011296FF
:101C2000159780F06282738251834083D9016D934E
:101C30007C93E114F10471F0D7011396FC93EE93B9
:101C4000129776CF22968C0F9D1FF9019183808386
:101C5000F301EFCFF093D301E093D20169CF48169F
:101C6000590608F42C017D01D3019ACFCB010E94C3
:101C7000660C7C01009749F0AE01B8010E94480E45
:101C8000C8010E94020D870153CF10E000E050CF41
:101C9000FB01DC0102C001900D9241505040D8F789
:101CA0000895FB01DC0101900D920020E1F70895F9
:101CB000FB01DC014150504048F001900D920020A2
:101CC000C9F701C01D9241505040E0F70895AEE0C1
:101CD000B0E0EDE6FEE00C94080C0D891E8986E06C
:101CE0008C831A8309838FEF9FE79E838D83AE01D8
:101CF000475E5F4F6F89788DCE0101960E948A0EF4
:101D00002F813885020F131FF80110822E96E4E010
:101D10000C94240CABE0B0E0E0E9FEE00C94FA0B8C
:101D20007C013B018A01FC0117821682838181FFBD
:101D3000C8C1CE0101965C01F7019381F30193FDC7
:101D4000859193FF81913F01882309F453C1853226
:101D500039F493FD859193FF81913F01853229F4F8
:101D6000B70190E00E947A10E7CF912C212C312C02
:101D7000FFE1F31538F08B3211F190F4803209F164
:101D8000833229F137FC3CC020ED280F2A3050F572
:101D900036FE20C08AE0989E200D1124922E06C0A7
:101DA0008D3291F0803371F7689430F8F30193FD30
:101DB000859193FF81913F018111DACF21C0689411
:101DC00031F8689432F8F2CF689433F8EFCF689422
:101DD00034F8ECCFEAE02E9E200D1124222E6894D8
:101DE00035F8E4CF8E3229F436FC04C1689436F815
:101DF000DDCF8C3619F4689437F8D8CF8836B1F235
:101E0000982F9F7D95549330E0F08336A1F183376E
:101E1000C1F1833509F063C02801F2E04F0E511C77
:101E2000F801C080D180692D70E036FC02C06FEFF0
:101E30007FEFC6010E9464104C01689437F882015C
:101E40000AC00C5F1F4FFFE3F98388248394912C11
:101E50006501E89437F833FE2DC0522C81149104AB
:101E600071F5552009F468CFB70180E290E00E9437
:101E70007A105A94F6CFF801808189830E5F1F4F44
:101E8000E4CF2801F2E04F0E511CF801C080D18050
:101E9000692D70E036FC02C06FEF7FEFC6010E9433
:101EA0006F104C018201D5CFB70180E290E00E9413
:101EB0007A102A942814190409F0B0F7CECFF6014D
:101EC00037FC859137FE81916F01B70190E00E9448
:101ED0007A1051105A94F1E08F1A9108BFCF8436CE
:101EE00019F0893609F077C0F80137FE6BC06081C0
:101EF0007181828193810C5F1F4FF32DFF763F2EFE
:101F000097FF09C090958095709561957F4F8F4F91
:101F10009F4F689437F82AE030E0A5010E94AA108C
:101F2000C82ECA188C2C432C36FE0CC0E89440F8FE
:101F3000C91440F434FE05C032FC03C0F32DFE7E0C
:101F40004F2E892C44FE95C0FE01EC0DF11D8081C1
:101F5000803309F087C0242D297E422E842D88707D
:101F6000582E43FC95C040FE8FC09C2C821418F460
:101F70002C0C922C981844FE91C0B70180E390E09D
:101F80000E947A1042FE09C088E790E041FE02C03C
:101F900088E590E0B7010E947A10C91408F48AC05D
:101FA000CA94D12C9FEFC91AD90ACA0CDB1CF601BE
:101FB00082916F01B70190E00E947A10AC14BD04C9
:101FC000B1F74FCF60817181072E000C880B990B00
:101FD0000E5F1F4F92CFD32CE894D4F82AE030E064
:101FE000853739F1232D297FD22E8F3601F148F420
:101FF0008835A9F0F701868197812B96E2E10C9450
:10200000160C803749F08837A9F7D4FE02C06894CF
:10201000D2F820E130E00DC06894D4F8F6CF34FE59
:1020200003C0822F8660D82E20E132E002C028E073
:1020300030E0F801D7FE0FC0608171818281938109
:102040000C5F1F4FA5010E94AA10C82ECA183D2C74
:10205000E89437F867CF6081718190E080E00E5F8F
:102060001F4FF0CF42FC02C0839478CF83948394B7
:1020700075CF842D867809F471CFF6CFB70180E251
:1020800090E00E947A1083948214C0F3512C73CF95
:10209000522C5818821408F46ECFF8CF842D86780D
:1020A00009F47BCF8BE241FE80E247FC8DE2B70171
:1020B00090E071CFB70180E390E00E947A109A948B
:1020C0006CCF8FEF9FEF99CFFC010590615070406E
:1020D0000110D8F7809590958E0F9F1F0895FC01F1
:1020E0006150704001900110D8F7809590958E0F47
:1020F0009F1F08950F931F93CF93DF93182F092FDE
:10210000EB018B8181FD09C01FEF0FEF812F902F15
:10211000DF91CF911F910F91089582FF14C02E81FE
:102120003F818C819D81281739073CF4E881F98132
:10213000CF0101969983888310838E819F810196B8
:102140009F838E83E3CFE885F985812F0995892BBD
:10215000A1F3DACFFA01AA27283051F1203181F119
:10216000E8946F936E7F6E5F7F4F8F4F9F4FAF4F9F
:10217000B1E03ED0B4E03CD0670F781F891F9A1FB2
:10218000A11D680F791F8A1F911DA11D6A0F711D66
:10219000811D911DA11D20D009F468943F912AE072
:1021A000269F11243019305D3193DEF6CF0108955A
:1021B000462F4770405D4193B3E00FD0C9F7F6CF8B
:1021C000462F4F70405D4A3318F0495D31FD405253
:1021D000419302D0A9F7EACFB4E0A69597958795E9
:1021E00077956795BA95C9F70097610571050895C8
:1021F0009B01AC010A2E0694579547953795279574
:10220000BA95C9F7620F731F841F951FA01D08950B
:10221000F894FFCF0000D4018000253034640053CF
:102220004554500049487500494C75004F487500A9
:102230004F4C750053455475004F754C00744F6EEC
:1022400000744F464600644946460072756E0000B1
:107E0000112484B714BE81FFF0D085E080938100F7
:107E100082E08093C00088E18093C10086E0809377
:107E2000C20080E18093C4008EE0C9D0259A86E02C
:107E300020E33CEF91E0309385002093840096BBD3
:107E4000B09BFECF1D9AA8958150A9F7CC24DD24C4
:107E500088248394B5E0AB2EA1E19A2EF3E0BF2EE7
:107E6000A2D0813461F49FD0082FAFD0023811F036
:107E7000013811F484E001C083E08DD089C08234E0
:107E800011F484E103C0853419F485E0A6D080C0E4
:107E9000853579F488D0E82EFF2485D0082F10E0AE
:107EA000102F00270E291F29000F111F8ED06801E7
:107EB0006FC0863521F484E090D080E0DECF843638
:107EC00009F040C070D06FD0082F6DD080E0C81688
:107ED00080E7D80618F4F601B7BEE895C0E0D1E017
:107EE00062D089930C17E1F7F0E0CF16F0E7DF06D8
:107EF00018F0F601B7BEE89568D007B600FCFDCFD4
:107F0000A601A0E0B1E02C9130E011968C91119780
:107F100090E0982F8827822B932B1296FA010C0160
:107F200087BEE89511244E5F5F4FF1E0A038BF0790
:107F300051F7F601A7BEE89507B600FCFDCF97BE46
:107F4000E89526C08437B1F42ED02DD0F82E2BD052
:107F50003CD0F601EF2C8F010F5F1F4F84911BD097
:107F6000EA94F801C1F70894C11CD11CFA94CF0C13
:107F7000D11C0EC0853739F428D08EE10CD085E9AC
:107F80000AD08FE07ACF813511F488E018D01DD067
:107F900080E101D065CF982F8091C00085FFFCCF94
:107FA0009093C60008958091C00087FFFCCF809118
:107FB000C00084FD01C0A8958091C6000895E0E648
:107FC000F0E098E1908380830895EDDF803219F02E
:107FD00088E0F5DFFFCF84E1DECF1F93182FE3DFCA
:107FE0001150E9F7F2DF1F91089580E0E8DFEE27F6
:047FF000FF270994CA
:027FFE00040479
:00000001FF
